:020000040800F2
:10000000100E0020C1010008C9010008CB01000842
:10001000CD010008CF010008D10100080000000058
:10002000000000000000000000000000D3010008F4
:10003000D501000800000000D7010008C921000810
:10004000DB010008DB010008DB010008DB01000820
:10005000DB010008DB010008DB010008DB01000810
:10006000DB010008DB010008DB010008DB01000800
:10007000DB010008DB010008DB010008DB010008F0
:10008000DB010008DB010008DB010008DB010008E0
:10009000DB010008DB010008DB010008DB010008D0
:1000A000DB010008DB010008DB010008DB010008C0
:1000B000DB010008DB010008DB010008DB010008B0
:1000C000DB010008DB010008DB010008DB010008A0
:1000D000DB010008DB010008DB010008DB01000890
:1000E000DB010008DB010008DB010008DB01000880
:1000F000DB010008DB010008DB010008DB01000870
:10010000DB010008DB010008DB010008DB0100085F
:10011000DB010008DB010008DB010008DB0100084F
:10012000DB010008DB010008DB010008DB0100083F
:10013000DB010008DB010008DB010008DB0100082F
:10014000DB010008DB010008DB010008DB0100081F
:10015000DB010008DB010008DB010008DB0100080F
:10016000DB010008DB010008DB010008DB010008FF
:10017000DB010008DB010008DB01000800000000D3
:10018000DB010008DB010008DB010008DB010008DF
:10019000DB010008DB010008DB010008DB010008CF
:1001A0000000000000000000DB010008DFF80CD0B8
:1001B00000F0AEFA00480047595E0008100E00201B
:1001C0000648804706480047FEE7FEE7FEE7FEE7F1
:1001D000FEE7FEE7FEE7FEE7FEE7FEE77122000826
:1001E000AD010008421C10F8011B0029FBD1801A48
:1001F00070472DE9FE4F804681EA0300C00F0C4690
:10020000009021F0004123F00045B8EB0200A94125
:1002100005D24046214690461C460B46024623F036
:100220000040104347D0270DC7F30A00C3F30A511B
:100230000290401A019040286BDAC3F3130040F497
:10024000801B0098924620B10023D2EB030A63EB97
:100250000B0B01985946C0F14002504600F0A9F935
:1002600006460D4650465946019A00F0B1F910EB8A
:1002700008006141002487EA115284EAE7731A43B7
:1002800040D0009A62B3019A012A4FEA075215DC66
:10029000001B61EB02014FF0004202EA0752CDE978
:1002A0000042001C41F5801132462B4600F0B1F9A6
:1002B00003B0BDE8F08F40462146F9E7001B61EB33
:1002C0000201001C41F5801300185B412018A2F5C3
:1002D000001747EB030140EAD570B6196D4111E0F4
:1002E0006D084FEA360645EAC0754FEA0752001B13
:1002F00061EB0201001C41F5801149084FEA300012
:100300000019514132462B4603B0BDE8F04F00F0D2
:1003100071B90098012240000023D0EB020263EB88
:10032000E073009821464FEAE074B8EB000061EBFF
:100330000401E9E783F000435BE781F0004158E7FF
:100340002DE9FE4F81EA030404F0004421F000414E
:1003500000944FF0000B23F0004350EA01045ED0FC
:1003600052EA03045BD0C3F30A54C1F30A552C4488
:10037000A4F2F3340194A0FB0254C1F3130141F43D
:100380008011C3F3130343F4801301FB024400FB09
:10039000034E840A970A44EA815447EA8357A4FB30
:1003A000076802958D0A05FB07854FEA932C04FB2D
:1003B0000C542705029D4FEA065847EA1637B5EB5D
:1003C00008056EEB070C870E920E47EA811742EA8A
:1003D0008312A7FB0201B6EB0B0164EB00042B0DAB
:1003E00043EA0C335E1844EB1C50DA465146E7FBF7
:1003F0000201C5F313044FEA0B3343EA14534FEAE7
:100400000432019C43EA0603A4F10C040294009C0C
:10041000CDE900B400F0FDF803B0BDE8F08F002096
:100420000146F9E72DE9F04D81EA030404F0004BA1
:1004300021F0004514464FF0000A23F0004150EA35
:10044000050220D054EA01021DD0C5F30A57024626
:10045000C5F31303C1F31300C1F30A5640F480152A
:1004600043F48013A7EB0608101BD64608F2FD38AC
:1004700073EB050002D308F1010801E092185B411B
:10048000B8F1000F03DA00200146BDE8F08D00202E
:100490004FF48011064684460EE0171B73EB0507E8
:1004A00005D3121B63EB050306434CEA010C490814
:1004B0004FEA300092185B4150EA0107EDD152EA51
:1004C000030012D082EA040083EA0501084305D044
:1004D000101BAB4106D20122002306E000224FF0A0
:1004E000004302E06FF0010253101AEB06004CEBE0
:1004F000085110EB0A0041EB0B01BDE8F04D00F094
:1005000079B80EB5C10F80EAE0700844CA0700212F
:1005100040F233438DE80E000A460B4600F079F8AE
:1005200003B000BD30B50B46014600202022012457
:1005300009E021FA02F59D4205D303FA02F5491BB1
:1005400004FA02F52844151EA2F10102F1DC30BDC7
:100550002DE9F05F0546002092469B4688460646F8
:10056000814640241BE0284641464746224600F08B
:10057000E1F853465A46C01A914110D31146184625
:10058000224600F016F82D1A67EB01084F46224666
:100590000120002100F00DF817EB00094E41201E4C
:1005A000A4F10104DFDC484631462A464346BDE853
:1005B000F09F202A04DB203A00FA02F10020704765
:1005C0009140C2F1200320FA03F319439040704791
:1005D000202A06DBCB17203A41FA02F043EAE07307
:1005E00006E041FA02F3D040C2F1200291400843F4
:1005F0001946704710B5141E73F1000408DA401C48
:1006000041F1000192185B411A4301D120F0010031
:1006100010BD2DE9F04D92469B4611B1B1FA81F221
:1006200002E0B0FA80F220329046FFF7C2FF0446A3
:100630000F4640EA0A0041EA0B0153465A46084376
:1006400013D0114653EA010019D0C8F140025046B8
:1006500000F070F805460E46504659464246FFF7F0
:10066000A8FF084305D0012004E020463946BDE834
:10067000F08D0020054346EAE0762C4337430A9884
:100680006305E40AA0EB08000022FD0A44EA47548F
:100690000A3002D500200146E9E701051019694139
:1006A000DDE9084500196941BDE8F04DA2E7C1F355
:1006B0000A52C1F3130140F2FF3341F480119A4210
:1006C00002DA00200146704740F233439A42A2F218
:1006D000334202DC524200F02DB8FFF76ABF00003F
:1006E00030B5041E71F1000404DB4FF000444042B9
:1006F00064EB0101141E73F1000405DB1C464FF08E
:100700000043524263EB0403994208BF904230BD5C
:10071000064C074D06E0E06840F0010394E807004E
:1007200098471034AC42F6D3FFF744FD105F000841
:10073000305F0008202A04DB203A21FA02F0002171
:10074000704721FA02F3D040C2F1200291400843E1
:100750001946704731B500F019F9044600F016F952
:100760000099001B8842F9D338BD00002DE9F84FED
:100770000022DFF80492DFF8FC814FF0010E0F2712
:1007800009F1040A0EFA02F50B682B40AB427CD14A
:10079000D1F804C0BCF1020F02D0BCF1120F14D189
:1007A0004FEAD20C00EB8C04266A4FEA427C4FEAF7
:1007B000DC6C07FA0CFB26EA0B06D1F810B00BFA3A
:1007C0000CFC4CEA060CC4F820C006684FEA420C48
:1007D000032404FA0CF4A64391F804B00BF0030BC5
:1007E0000BFA0CFB4BEA060606604E68012E05D09C
:1007F000022E03D0112E01D0122E11D18668A643ED
:10080000D1F80CB00BFA0CFB4BEA06068660466882
:1008100026EA05050E79C6F3001696403543456075
:10082000C56825EA04048D6805FA0CFC4CEA040C42
:10083000C0F80CC0D1F804C01CF0805F75D0D8F8A7
:1008400000C04CF4804CC8F800C0D8F800C00CF4CC
:10085000804CCDF800C022F0030C0CF1804505F56A
:100860009835D5F808C89407240F07FA04F62CEA3F
:100870000606A0F1804CBCF5003C5CD0BCF5806C59
:100880005CD0BCF5806C5CD000E04EE0BCF5806CC8
:100890005AD0BCF5806C5AD0BCF5806C5AD0BCF5EF
:1008A000806C5AD0BCF5806C5AD0BCF5806C5AD0A4
:1008B000BCF5806C5AD04FF00A0C0CFA04FC4CEAE0
:1008C000060CC5F808C8D9F800C02CEA030C4C681F
:1008D00014F4803F01D04CEA030CC9F800C0DAF8E8
:1008E00000C02CEA030C4C6814F4003F01D04CEA21
:1008F000030CCAF800C0214CD4F800C02CEA030C49
:100900004D6815F4801F01D04CEA030CC4F800C0F8
:100910001B4CD4F800C02CEA030C4D6815F4001FE2
:1009200001D04CEA030CC4F800C0521C102AFFF49A
:1009300029AFBDE8F88F4FF0000CBEE74FF0010C77
:10094000BBE74FF0020CB8E74FF0030CB5E74FF0F0
:10095000040CB2E74FF0050CAFE74FF0060CACE724
:100960004FF0070CA9E74FF0080CA6E74FF0090C71
:10097000A3E7000044380240003C0140083C01402D
:100980000C3C014042695140416170470148006898
:100990007047000000000020806B704770B504466F
:1009A000002C04D094F83500002510B106E0012099
:1009B00070BD84F83450204600F0FAF9022084F823
:1009C00035002068016821F00101016000F044FC5D
:1009D0003249B0FBF1F122685160314A63689342B9
:1009E00001D8491C07E04FF4967359434FF47A73CA
:1009F000B1FBF3F1491C23681962616891420BD87D
:100A00004900B0FBF1F2C2F30B02042A01D2042028
:100A10001AE0B0FBF1F017E0A2688AB301EBC10362
:100A200003EB0113B0FBF3F343F480431B051B0DF1
:100A30002CD06AB301EBC10202EB0111B0FBF1F063
:100A400040F4804040F400402168C861216AE069B8
:100A5000084321680860E1682069084321688860CC
:100A6000A169606908432168C8602068016841F095
:100A700001010160A563012084F83500002070BDEC
:100A8000FFE701EB4103B0FBF3F3CFE70120DBE726
:100A900001EB4101B0FBF1F0D4E7000040420F0050
:100AA000A08601002DE9F84F0446DDF828A00F4686
:100AB00015461E4694F83500012802D00220BDE8F4
:100AC000F88F5DB156B142F210730122734920468E
:100AD00001F068F828B10220BDE8F88F0120BDE8D8
:100AE000F88F94F8340001281DD04FF0010984F8E4
:100AF00034902068016821F400610160222084F8AC
:100B000035004FF00008C4F8388052463946204678
:100B100000F086FF78B1A06B042807D084F83480F9
:100B20000320BDE8F88F0220BDE8F88F84F83480F8
:100B30000120BDE8F88F012E1ED0022E2AD0206899
:100B4000016841F48061016020684169806900901A
:100B5000534FDFF850B1032E7BD8012E29D0022E3F
:100B600037D0534600223946204601F01BF80028B2
:100B700048D00320BDE8F88F2068016821F4806127
:100B800001602068416981690091016841F4007148
:100B90000160DDE72068016821F480610160206860
:100BA000016841F40061016020684169806900903A
:100BB000CEE7534600225946204600F0F3FF10B11D
:100BC0000320BDE8F88F2068006905F8010B0026B6
:100BD00059E0534600223946204600F0E3FF10B1A9
:100BE0000320BDE8F88F2068016841F400710160BE
:100BF000206800692870681C216809690170451C1B
:100C0000002640E02068016821F4806101602068CE
:100C1000006905F8010B701E86B253460022394662
:100C2000204600F0BFFF10B10320BDE8F88F206818
:100C3000016841F400710160206800692870681C37
:100C4000711E226812690270451C481E86B21AE0A5
:100C5000FFE7534600225946204600F0A3FF10B19B
:100C60000320BDE8F88F2068006905F8010B701EAD
:100C700086B22068416911F0040F04D0006905F8BC
:100C8000010B701E86B2002E7FF465AF84F835909C
:100C900084F834800020BDE8F88F000002001000C6
:100CA00004000100400001002DE9F84F0446DDF882
:100CB00028908A4615461E4694F83500012802D031
:100CC0000220BDE8F88F5DB156B142F210730122E7
:100CD0003549204600F066FF28B10220BDE8F88FB4
:100CE0000120BDE8F88F94F8340001281BD04FF0A4
:100CF000010884F834802068016821F400610160F3
:100D0000122084F835000027A7634A465146204642
:100D100000F002FF78B1A06B042807D084F834708B
:100D20000320BDE8F88F0220BDE8F88F84F8347006
:100D30000120BDE8F88F2068416980690090DFF8E4
:100D40006CA04B4600225146204600F02BFF10B10C
:100D50000320BDE8F88F216815F8010B0861701EAB
:100D600086B22068416911F0040F05D026B115F84C
:100D7000011B0161701E86B2002EE2D14B4600229B
:100D80005146204600F00EFF10B10320BDE8F88F59
:100D90002068016841F40071016084F8358084F8AE
:100DA00034700020BDE8F88F0200100080000100C0
:100DB00000B587B00068A0F18041B1F5A84116D117
:100DC000C02002901220039001200490032005907F
:100DD0000420069002A90748FFF7C8FC06480168EE
:100DE00041F400110160006800F40010019007B0A8
:100DF00000BD000000040240403802400248016883
:100E0000491C0160704700000000002010B50B482D
:100E1000016841F400710160016841F48061016082
:100E2000016841F480710160032000F059F800204E
:100E300000F006F800F015F8002010BD003C02405C
:100E400010B5044600F0EEF94FF47A72B0FBF2F000
:100E500000F006FD00222146501E00F00DF8002093
:100E600010BD10B5032000F03BF80022BDE8104093
:100E70001146501EAFF3008010B4184B1B68C3F32B
:100E80000223C3F1070CBCF1040F01D94FF0040C8D
:100E90001C1D072C01D2002300E0DB1E012404FAF4
:100EA0000CFCACF1010C0CEA0101994004FA03F3CB
:100EB0005B1E1A401143002808DA00F00F0000F111
:100EC000E020090180F8141D10BC704700F1E020FB
:100ED000090180F8001410BC704700000CED00E020
:100EE00000F00700064A11684FF6FF03194041EA77
:100EF000002040F0FD7040F08060106070470000FE
:100F00000CED00E0F8B52548016841F08051016022
:100F1000006800F0805000900126300490FAA0F0A4
:100F2000B0FA80F0800000F1844000F56020066097
:100F3000FFF72CFD05461A4C606810F4803F0BD17A
:100F4000FFF724FD401BB0F57A7F01D90320F8BDDF
:100F5000606810F4803FF3D04FF4003090FAA0F0B6
:100F6000B0FA80F0800000F1844000F56020066057
:100F7000FFF70CFD0546606810F4003F0BD1FFF74A
:100F800005FD401BB0F57A7F01D90320F8BD6068EC
:100F900010F4003FF3D00020F8BD000040380240BC
:100FA000007000402DE9F04704460E46DFF868A2C5
:100FB000DAF80000994900F00F00994F06F0FF0998
:100FC00041F28838B04270D28AF80090DAF8000016
:100FD00000F00F00B04202D00120BDE8F087207879
:100FE00010F0020F05D03868A26820F0F00010431E
:100FF0003860207810F0010F49D06068012808D0CF
:1010000002280DD003280BD0096811F0020F29D057
:101010000AE0096811F4003F06D10120BDE8F0871D
:10102000096811F0007F1AD0396821F003010843E4
:101030003860FFF7ABFC05466068012815D0022830
:1010400026D003283BD0386810F00C0F1FD0FFF7D4
:101050009DFC401B404539D90320BDE8F0870120A5
:10106000BDE8F0870120BDE8F087386800F00C008B
:1010700004280CD0FFF78AFC401B404502D903200E
:10108000BDE8F087386800F00C000428F2D1A8E031
:10109000386800F00C00082870D0FFF777FC401B80
:1010A000404503D90320BDE8F08714E0386800F01C
:1010B0000C000828F1D194E00320BDE8F0873868DF
:1010C000FFF764FC401B4045F9D9F5E7386810F09C
:1010D0000C0FBCD185E0207810F0020F05D03868E5
:1010E000A26820F0F00010433860207810F0010F63
:1010F0006CD06068012808D002280DD003280BD0DE
:10110000096811F0020F29D00AE0096811F4003FC4
:1011100006D10120BDE8F087096811F0007F1AD0E0
:10112000396821F0030108433860FFF72FFC0546BA
:101130006068012815D0022827D003283BD03868E2
:1011400010F00C0F42D0FFF721FC401B404539D96D
:101150000320BDE8F0870120BDE8F0870120BDE84D
:10116000F087386800F00C0004282FD0FFF70EFC41
:10117000401B404503D90320BDE8F08731E03868C3
:1011800000F00C000428F1D120E0386800F00C00D9
:1011900008281BD0FFF7FAFB401B404502D903206B
:1011A000BDE8F087386800F00C000828F2D10DE0A7
:1011B0000320BDE8F0873868FFF7E8FB401B404597
:1011C000F9D9F5E7386810F00C0FBCD18AF8009017
:1011D000DAF8000000F00F00B04202D00120BDE8B4
:1011E000F087207810F0040F05D03868E16820F40B
:1011F000E05008433860207810F0080F06D03868B7
:10120000216920F4604040EAC10038600020FFF707
:1012100017FE0020BDE8F087003C02400038024085
:101220000838024010B500F043F808490968F02278
:1012300092FAA2F201F0F001B2FA82F2D140044A2D
:10124000515CC8400349086010BD000008380240E6
:10125000D85E00083400002010B5FFF7E3FF07490F
:1012600009684FF4E05292FAA2F201F4E051B2FAA6
:1012700082F2D140024A515CC84010BD0838024099
:10128000D85E000810B5FFF7CDFF074909684FF495
:10129000604292FAA2F201F46041B2FA82F2D140C5
:1012A000024A515CC84010BD08380240D85E0008B0
:1012B00010B41F48006810F00C011E481BD04FEA04
:1012C000600C042916D0082915D11B4A116801F0B9
:1012D0003F01136813F4800F47F6C0730DD0BCFBB9
:1012E000F1F01168194093FAA3F3B3FA83F3D940EC
:1012F00048430CE0604610BC7047B0FBF1F0116849
:10130000194093FAA3F3B3FA83F3D9404843116821
:101310004FF4403292FAA2F201F44031B2FA82F272
:10132000D140491C4900B0FBF1F010BC70470000EF
:10133000083802400024F400043802402DE9F84F38
:101340000446DFF8E8B32078F94D10F0010F4FF0B4
:10135000000741F2883660D0DBF8000000F00C0096
:1013600004280AD0DBF8000000F00C0008280DD19A
:10137000281D006810F4800F08D0286810F4003F82
:101380004BD0606878BB0120BDE8F88FDFF8A493EC
:1013900089F80070FFF7FAFA8046286810F4003FD9
:1013A0000CD0FFF7F3FAA0EB0800B04202D90320FB
:1013B000BDE8F88F286810F4003FF2D1207989F851
:1013C00000006068A8B1FFF7E1FA8046286810F4D1
:1013D000003F22D1FFF7DAFAA0EB0800B04203D9B0
:1013E0000320BDE8F88F18E0286810F4003FF1D022
:1013F00013E0FFF7CBFA8046286810F4003F0CD0CA
:10140000FFF7C4FAA0EB0800B04202D90320BDE800
:10141000F88F286810F4003FF2D12078DFF81883A5
:1014200010F0020F64D0DBF800004FF0F80A10F063
:101430000C0F17D0DBF8000000F00C00082804D1D6
:10144000BE48006810F4800F0CD0E068C8B30120DB
:10145000C8F80000FFF79AFA8146286810F0020FDA
:1014600016D022E0286810F0020F05D0E0680128AD
:1014700002D00120BDE8F88F28689AFAAAF2216903
:10148000B2FA82F220F0F8009140084328602FE081
:10149000FFF77CFAA0EB0900642802D90320BDE81D
:1014A000F88F286810F0020FF2D028689AFAAAF292
:1014B0002169B2FA82F220F0F800914008432860D6
:1014C00016E0FFE7C8F80070FFF760FA8146286869
:1014D00010F0020F0CD0FFF759FAA0EB09006428B6
:1014E00002D90320BDE8F88F286810F0020FF2D16E
:1014F000207810F0080F34D09148DFF848A26169D5
:10150000C1B101210160FFF741FA8146DAF800001C
:1015100010F0020F25D1FFF739FAA0EB090064287B
:1015200002D90320BDE8F88FDAF8000010F0020FAE
:10153000F1D016E00760FFF729FA8146DAF80000DB
:1015400010F0020F0DD0FFF721FAA0EB090064287C
:1015500002D90320BDE8F88FDAF8000010F0020F7E
:10156000F1D1207810F0040F72D07748016841F073
:1015700080510160006800F080500090DFF8CCA13D
:10158000DAF8000040F48070CAF80000FFF7FEF9B6
:101590008146DAF8000010F4807F0DD1FFF7F6F9EC
:1015A000A0EB0900642802D90320BDE8F88FDAF81F
:1015B000000010F4807FF1D0DFF894A18AF8007069
:1015C000FFF7E4F98146DAF8000010F0020F0DD0C1
:1015D000FFF7DCF9A0EB0900B04202D90320BDE817
:1015E000F88FDAF8000010F0020FF1D1207A8AF8B3
:1015F0000000A068B0B1FFF7C9F98146DAF8000031
:1016000010F0020F24D1FFF7C1F9A0EB0900B0429E
:1016100002D90320BDE8F88FDAF8000010F0020FBD
:10162000F1D015E0FFF7B2F98146DAF8000010F0CA
:10163000020F0DD0FFF7AAF9A0EB0900B04202D9C2
:101640000320BDE8F88FDAF8000010F0020FF1D1A6
:10165000A069E8B3DBF8001001F00C01082979D08B
:10166000022810D0C8F86070FFF790F90446286887
:1016700010F0007F74D0FFF789F9001B64286BD944
:101680000320BDE8F88FC8F86070FFF77FF90646C1
:10169000286810F0007F0BD0FFF778F9801B6428D2
:1016A00002D90320BDE8F88F286810F0007FF3D13D
:1016B000216AE069626A014347F6C07090FAA0F0BF
:1016C000B0FA80F002FA00F04FF0FF33A26A00E0B7
:1016D00046E003EB52024FF4403393FAA3F3B3FA1C
:1016E00083F39A40104308434FF0706292FAA2F2DB
:1016F000E16AB2FA82F29140014310480160012090
:10170000C8F86000FFF742F90446286810F0007F2F
:1017100026D1FFF73BF9001B642802D90320BDE85E
:10172000F88F286810F0007FF3D019E008380240E5
:1017300000380240023802400000474204380240AC
:10174000800E47427438024040380240007000402A
:101750007038024007E0FFE7286810F0007F8AD168
:101760000020BDE8F88F0120BDE8F88F70B5044671
:10177000002C04D094F85100002510B106E001209F
:1017800070BD84F85050204600F034F8022084F8F0
:1017900051002068016821F040010160A168606883
:1017A00022690843E1681143084361690843218BBA
:1017B00001F400710843E1690843216A0843A16A02
:1017C000084321680860A069042101EA1040616AA9
:1017D0000843216848602168E06A08612068C1699F
:1017E00021F40061C1616565012084F85100002089
:1017F00070BD000000B587B00068A0F18041B1F570
:10180000605117D10C48016841F4804101600068C3
:1018100000F4804001904FF4704002900220039049
:1018200000200490032005900520069002A903489B
:10183000FEF79CFF07B000BD4038024000040240A4
:101840004FF0E021042804D0086920F0040008616A
:101850007047086940F00400086170477047000055
:10186000401EB0F1807F01D3012070474FF0E0218E
:101870004861044AF0201070002088610720086148
:101880000020704723ED00E010B5FFF7E7FF10BD23
:1018900070B50446002C04D094F83900002510B12E
:1018A00006E0012070BD84F83850204600F020F892
:1018B000022084F839002068C16821F40051C16019
:1018C000204600F001FD2068016921F4904101618A
:1018D0002068416921F02A0141612068C16841F412
:1018E0000051C160E563012084F83900002070BD1B
:1018F00000B587B00068A0F18041B1F5904116D1E4
:101900000C48016841F480210160006800F48020E7
:1019100001904FF440700290022003900120049047
:1019200005900720069002A90348FEF71FFF07B0A5
:1019300000BD000040380240000C02402DE9F0419B
:1019400004460D46984694F83900012804D0222810
:1019500002D00220BDE8F0811DB312B394F8380024
:10196000012821D0012684F838600027E76394F825
:10197000390022281BD0122084F83900A284E28486
:10198000E08C401EE084A068B0F5805F13D0434631
:1019900000228021204600F0A3FD08B30320BDE80B
:1019A000F0810120BDE8F0810220BDE8F081322005
:1019B00084F83900E2E7434600228021204600F007
:1019C0008FFD10B10320BDE8F08128882168C0F3A5
:1019D00008004860206908B16D1C05E0AD1C03E0FB
:1019E000216815F8010B4860E08C0028C8D14346F7
:1019F00000224021204600F073FD10B10320BDE815
:101A0000F08194F83900322806D084F8396084F8DF
:101A100038700020BDE8F081222084F83900F6E714
:101A20002DE9F84304460D4617462068016841F445
:101A3000806101602068016841F4807101603B466B
:101A400000224FF00111204600F0ACF810B1032045
:101A5000BDE8F8832069DFF8BC80B0F5804F13D073
:101A6000216805F44076F02040EAD61008613A4635
:101A700008F10601204600F011F970B1A06B0428AE
:101A800008D00320BDE8F8832168E8B240F00100E7
:101A900008612CE00120BDE8F8832168E8B2086104
:101AA0003A464146204600F0F9F840B1A06B0428C0
:101AB00002D00320BDE8F8830120BDE8F883206848
:101AC000416981690091016841F4807101603B4680
:101AD00000224FF00111204600F064F810B10320FD
:101AE000BDE8F8832168F12040EAD61008613A4643
:101AF0004146204600F0D2F840B1A06B042802D045
:101B00000320BDE8F8830120BDE8F8830020BDE88C
:101B1000F88300000200010070B504460D46164629
:101B20002068016841F480710160334600224FF063
:101B30000111204600F036F808B1032070BD20697D
:101B4000B0F5804F11D005F44070F02141EAD0107B
:101B50002168086132461149204600F09FF858B1CB
:101B6000A06B042806D0032070BD216805F0FE009C
:101B7000086104E0012070BD2168E8B208613246C6
:101B80000749204600F08AF830B1A06B042801D044
:101B9000032070BD012070BD002070BD0800010051
:101BA000020001002DE9F05F04460D4693461E46F3
:101BB000FEF7ECFE80464FF000094FF0010AC5F336
:101BC0000747BBF1000F09D0012F3BD02068806987
:101BD00025EA00000004000C3BD054E0012F17D090
:101BE0002068806925EA00000004000C4BD0B6F1A3
:101BF000FF3F15D02EB1FEF7C9FEA0EB0800B042A2
:101C00000ED984F835A084F834900320BDE8F09F05
:101C10002068406925EA00000004000C33D0E6E7A4
:101C2000012F07D02068806925EA00000004000C1D
:101C3000DDD128E02068406925EA00000004000C9E
:101C4000D5D120E02068406925EA00000004000C9E
:101C500019D1B6F1FF3F0DD02EB1FEF797FEA0EBE4
:101C60000800B04206D984F835A084F834900320E7
:101C7000BDE8F09F012F09D02068806925EA0000A7
:101C80000004000CE5D00020BDE8F09F206840690A
:101C900025EA00000004000CDBD0F4E72DE9F04752
:101CA00004460D461646FEF771FE0746C5F3074883
:101CB000B8F1010F21D02068806925EA00000004F6
:101CC000000C3CD04FF000094FF0010A2068406939
:101CD00010F4806F19D02068016841F40071016030
:101CE00021686FF4806048610420A06384F835A007
:101CF00084F834900120BDE8F0872068406925EA27
:101D000000000004000C1AD0DCE7B6F1FF3F0CD055
:101D100026B1FEF73BFEC01BB04206D984F835A0C1
:101D200084F834900320BDE8F087B8F1010F09D0A2
:101D30002068806925EA00000004000CC6D100205C
:101D4000BDE8F0872068406925EA00000004000C27
:101D5000BCD1F4E710B50021222000F013FAFC21D9
:101D6000202000F00FFA4021212000F00BFA0C2176
:101D7000232000F007FA002010BD000000B587B056
:101D80001248016841F004010160016801F004019A
:101D90000191016841F002010160016801F0020156
:101DA0000191016841F008010160006800F008003D
:101DB00001902020029001200390002104910590C1
:101DC00002A90348FEF7D2FC07B000BD303802403C
:101DD000000802400A48094901600A49416000219F
:101DE0008160D022C2604FF4804202614161816112
:101DF0004022C2610162FEF7D1BD000000540040E4
:101E000038000020A08601000C480B4901604FF407
:101E10008271416000218160C16002220261012261
:101E20004261920482612822C26101624162816240
:101E30000A21C162FFF79ABC00380040B4020020BA
:101E40000848074901604FF4E13141600021816099
:101E5000C16001610C2242618161C161FFF718BD5F
:101E600000480040740100202DE9F04F2DED048B57
:101E700095B001226049212002F0E8FD5E4C01226C
:101E8000611C202002F0E2FD6078217840EA012107
:101E9000204641800EA802F065FD0CA802F0FCF877
:101EA000BDF93000FEF72DFB9FED558B53EC182B41
:101EB000FEF7B8FA41EC100B9FED539B51EC100B61
:101EC00053EC192BFEF73CFA0D460446BDF93200DF
:101ED000FEF717FB53EC182BFEF7A4FA41EC100B9E
:101EE00053EC192B51EC100BFEF72AFA8B46824665
:101EF000BDF93400FEF705FB53EC182BFEF792FA00
:101F000041EC100B53EC192B51EC100BFEF718FAA7
:101F10000F460646BDF93800FEF7F3FA9FED3C8BFD
:101F200053EC182BFEF77EFA41EC100B9FED3A9B19
:101F300051EC100B53EC192BFEF774FA139112901D
:101F4000BDF93A00FEF7DDFA53EC182BFEF76AFAFA
:101F500041EC100B53EC192B51EC100BFEF762FA0D
:101F600011911090BDF93C00FEF7CBFA53EC182B01
:101F7000FEF758FA41EC100B53EC192B51EC100BF7
:101F8000FEF750FA894680461B48B0F90200FEF77A
:101F9000B8FA9FED231B53EC112BFEF7D1F99FEDFF
:101FA000221B53EC112BFEF724F941EC100BCDF85A
:101FB0002C901199109809910890CDF828801399C8
:101FC00012988DE8300C0791069053EC102B059772
:101FD000049617A1264800F0F5FA2548FEF702F905
:101FE00082B241F2883322492248FFF7A7FC15B09C
:101FF000BDEC048BBDE8F08F240000200000000041
:102000007B14AE47E17A44404A0C022B8716B93F55
:1020100066666666666630406666666666A64C40BC
:10202000000000000000603F00000000000037409A
:1020300054656D70657261747572653A252E326CE7
:102040006620446174613A252E326C6620252E325A
:102050006C6620252E326C6620252E326C6620257B
:102060002E326C6620252E326C660D0A00000000B0
:10207000F00800207401002070B582B00F2000F03D
:1020800057F8224E3070282000F052F8741C20704F
:10209000292000F04DF8607094F90010E51D41EA28
:1020A000002028802A2000F043F8A0702B2000F0A8
:1020B0003FF8E07094F9021041EA002068802C207B
:1020C00000F036F820712D2000F032F840B2607137
:1020D00094F9041041EA0020A880B5F9021000919B
:1020E0000190B5F9003096F9002009A10E4800F0E2
:1020F00069FA0D48FEF776F802B082B2BDE870408A
:1021000041F2883308490948FFF718BC0400002051
:102110004D41474E5F49443A2025642025642025DF
:10212000642025640D0A0000740000207401002062
:1021300011B583B04FF6FF74012303AA3C21104868
:102140000094FEF7B1FD58B10D48FEF725FC0123C0
:1021500003AA3C210A480094FEF7A6FD0028F3D10B
:10216000012302AA3D2106480094FEF79BFC10B112
:102170000348FEF711FC9DF8080004B010BD0000F4
:102180003800002010B582B08DF804008DF80510DD
:102190004FF6FF74022301AA3C210A480094FEF77F
:1021A00083FD00280BD00748FEF7F6FB022301AAA7
:1021B0003C2104480094FEF777FD0028F3D102B0DB
:1021C00010BD00003800002010B5FEF717FEBDE876
:1021D0001040FFF759BB000030B593B022480168AA
:1021E00041F080510160006800F0805000901F486D
:1021F000016841F440410160006800F440400090F3
:10220000022406940120099010200A900C940025C5
:102210000D950E904FF4B4700F901094042011900F
:1022200006A8FFF78BF8FEF76DFE0D2001900294D3
:1022300003954FF4A0500490E0020590052101A8F9
:10224000FEF7B0FEFEF7EEFF4FF47A71B0FBF1F04F
:10225000FFF706FB0420FFF7F3FA00221146501E99
:10226000FEF70AFE13B030BD403802400070004057
:102270000F48016841F4700101600E48016841F0A7
:10228000010101600C4A00211160026822F4102251
:1022900022F080720260031D084A1A60026822F46C
:1022A00080220260064801600649580608607047AF
:1022B00088ED00E000380240083802401030002469
:1022C0000C38024008ED00E02DE9F041044620689A
:1022D000016921F44051E268114301612068C1683D
:1022E00021F4037121F414412369A268D4F81CC0BD
:1022F0001A43636943EA0C031A431143C16020681F
:10230000416921F44071A26911434161E069714A58
:102310007149724D3226B0F5004F38D0206888429E
:1023200001D090427ED1FEF7ADFF00EBC00101EB82
:10233000001061688900B0FBF1F0A5FB00104709AF
:10234000FEF7A0FF00EBC00101EB001061688900FF
:10235000B0FBF1F8FEF796FF00EBC00101EB0010B7
:1023600061688900B0FBF1F0A5FB001040096FF037
:102370001801484308EB800006EB0010A5FB001095
:102380002168400967F31F108860BDE8F08120686C
:10239000884201D0904233D1FEF774FF00EBC001B8
:1023A00001EB001061684900B0FBF1F0A5FB0010E3
:1023B0004709FEF767FF00EBC00101EB0010616801
:1023C0004900B0FBF1F8FEF75DFF00EBC00101EB47
:1023D000001061684900B0FBF1F0A5FB0010400956
:1023E0006FF01801484308EB800006EB0010A5FBD6
:1023F00000102168400967F31F108860BDE8F08174
:10240000FEF72AFF00EBC00101EB001061684900F4
:10241000B0FBF1F0A5FB00104709FEF71DFF00EB34
:10242000C00100E022E001EB001061684900B0FB50
:10243000F1F8FEF711FF00EBC00101EB001061683D
:102440004900B0FBF1F0A5FB001040096FF0180146
:10245000484308EB800006EB0010A5FB0010216844
:10246000400967F31F108860BDE8F081FEF7F4FEB5
:1024700000EBC00101EB001061688900B0FBF1F0D6
:10248000A5FB00104709FEF7E7FE00EBC00101EBDA
:10249000001061688900B0FBF1F8FEF7DDFE00EB8B
:1024A000C00101EB001061688900B0FBF1F0A5FBF1
:1024B000001040096FF01801484308EB800006EB5C
:1024C0000010A5FB00102168400967F31F10886009
:1024D000BDE8F08100140140001001401F85EB5160
:1024E0002DE9F04704460E4692461D46FEF74EFA89
:1024F00007464FF000084FF00109BAF1000F05D070
:102500002068006836EA00002FD057E02068006895
:1025100036EA000052D0B5F1FF3F20D025B1FEF7DA
:1025200035FAC01BA8421AD92068C16821F0800181
:10253000C1602068C16821F02001C1602068C168C5
:1025400021F48071C1602068416921F0010141617D
:1025500084F8399084F838800320BDE8F08720683B
:10256000006836EA0000D6D128E0B5F1FF3F20D060
:1025700025B1FEF70BFAC01BA8421AD92068C16822
:1025800021F08001C1602068C16821F02001C16094
:102590002068C16821F48071C1602068416921F020
:1025A0000101416184F8399084F838800320BDE846
:1025B000F0872068006836EA0000D6D00020BDE829
:1025C000F08700000FB4084B10B504A902AA0398C5
:1025D00000F0CEF8044602A9002000F060FC20467E
:1025E00010BC5DF814FB00009F2E000802E008C834
:1025F000121F08C1002AFAD170477047002001E07D
:1026000001C1121F002AFBD1704700002DE9FF5FB6
:10261000DDE90220010DDDF838B0024318D044F6A0
:102620001050A1F2FF3141430D140F98012820D022
:10263000A5EB0B00401C5FEA000A4FF00004474E78
:10264000DFF81C91A046504616D5CAF1000728E0D5
:102650000F98012443A2012808D0002100980F9B65
:10266000C0E90021C0E90243BDE8FF9F6FEA0B010A
:10267000F4E7CBF10000DEE7074612E0F80707D0E9
:102680002246334640464946FDF75AFE8046894673
:102690002246334610461946FDF752FE04460E46C2
:1026A0007F10002FEAD1DDE90201BAF1000F4246A6
:1026B0004B4602DAFDF744FE01E0FDF7B3FE0446A7
:1026C0000E460022284BFEF70BF803D84FF0FF30E0
:1026D000014607E00022254B20463146FDF789FDE3
:1026E000FDF7E5FF102409E0002C0ADB0A22002395
:1026F000FDF72EFF019B30321A55641E50EA01028D
:10270000F2D1641C019AC4F1110314440F9A012AF6
:1027100003D0012208430DD10AE0084304D0002071
:102720004FF0110B0F9080E7A3EB0B056D1E0DE032
:102730005B4504DD4FF0000205F1010504E003DA1A
:102740004FF00002A5F10105002AECD000980F9986
:10275000C0E90231C0E9004586E7000000002440DE
:102760000000F03F300000000000F0430000E03FB8
:102770002DE9FF4F95B09B468946064600250FE29E
:10278000252877D100242746F84A0121059400E046
:10279000044316F8013F203B01FA03F01042F7D141
:1027A00030782A2811D06FF02F033078A0F1300252
:1027B000092A16D8059A44F0020402EB820203EBC0
:1027C00042021044761C0590EFE759F8042B05925D
:1027D000002A03DA504244F40054059044F0020405
:1027E000761C30782E2816D116F8010F44F0040418
:1027F0002A280DD06FF02F023078A0F13003092B7A
:1028000009D807EB870302EB4303C718761CF3E7ED
:1028100059F8047B761C30786C280FD006DC4C28E5
:1028200017D068280DD06A2814D104E0742810D07D
:102830007A280FD10DE044F400140AE044F4801427
:1028400001E044F440147278824202D104F580140D
:10285000761C761C307866280BD013DC582877D08D
:1028600009DC002875D04528F6D04628F4D0472842
:102870001AD19DE118E0632835D0642879D0652805
:1028800012D195E1702873D008DC6728F1D069284F
:102890006FD06E280DD06F2806D1B5E073282CD0EC
:1028A000752875D0782874D05A46179990476D1CB2
:1028B00075E1C4F30250022809D003280DD0D9F8DD
:1028C000001004280DD00D6009F1040967E1D9F862
:1028D0000010EA17C1E90052F6E7D9F800100D80A0
:1028E000F2E70D70F0E719F8041B8DF800100020D6
:1028F0008DF80100EA46012003E059F804AB4FF0DF
:10290000FF3061074FF0000102D40DE008F1010132
:102910008846B9420FDA8045F8DB1AF8081000291A
:10292000F4D108E008F1010188468142FADB1AF887
:1029300008100029F6D105985B46A0EB0807214650
:102940003846179A00F094FA284400EB080507E08F
:102950004DE029E10DE01AF8010B5A46179990470E
:10296000B8F10108F7D25B4621463846179A13E1C1
:1029700042E00A220092C4F302524FF0000A022AF7
:1029800008D059F804CB032A4FEAEC710AD00DE0C5
:1029900029E02AE009F1070121F00702F2E802C16B
:1029A000914609E00FFA8CFC4FEAEC71042A03D13E
:1029B0004FFA8CFC4FEAEC71002907DA0A46002135
:1029C000DCF1000C61EB02012D2202E0220504D5AE
:1029D0002B228DF80420012203E0E20701D02022FF
:1029E000F7E7904659E00A2102E010220DE010219D
:1029F0004FF0000A00910BE010224FF0000A44F063
:102A000004040827009203E008224FF0000A009215
:102A1000C4F30252022A05D059F804CB0021032A3C
:102A200008D009E009F1070121F00702F2E802C12C
:102A3000914605E01FFA8CFC042A01D10CF0FF0C32
:102A40004FF00008220728D5702806D0009B83F09D
:102A5000100353EA0A0305D00EE040228DF804204B
:102A6000012208E05CEA010206D030228DF8042041
:102A70008DF8050002229046009B83F0080353EA7C
:102A80000A030AD15CEA010201D1620705D53022AE
:102A90008DF804204FF001087F1E582804D034A080
:102AA00003900EA802900DE036A0F9E75346604669
:102AB000009AFDF74DFD84460398825C0298401E03
:102AC000029002705CEA0100F0D1029806A9081A8F
:102AD00000F1200A600702D524F4803400E00127C9
:102AE000574502DDA7EB0A0000E0002000EB0A01D9
:102AF000009005984144401A0590E00306D45B46D7
:102B00002146179A059800F0B3F90544002706E01E
:102B100001A85A46C05D179990476D1C7F1C474518
:102B2000F6DBE0030CD55B462146179A059800F0CA
:102B30009FF9054404E030205A46179990476D1CD0
:102B40000099481E00900029F5DC08E002980299DF
:102B50005A460078491C0291179990476D1CBAF1AA
:102B60000001AAF1010AF1DC65E100000928010079
:102B700030313233343536373839616263646566F3
:102B800000000000303132333435363738394142B5
:102B9000434445460000000000F058F90544761C07
:102BA000307800287FF4ECAD19B02846BDE8F08FEE
:102BB000620700D4062709F1070222F0070CFCE89F
:102BC0000223E14603F000485FEA080C02D00FF24E
:102BD000702C0DE05FEA045C02D50FF2682C07E070
:102BE0005FEAC47C02D00FF2602C01E0AFF2700CFF
:102BF0004FF0FF3823F00043CDF850C065280CD0CB
:102C000006DC452809D046281DD047283DD13DE0A7
:102C1000662818D067287ED138E00021112F01DB0B
:102C2000112000E0781CCDE9000106A90EA8FFF7ED
:102C3000EDFCDDE90F010E9A03910021009207F1EE
:102C4000010A04914DE04FF000400097CDE90110DA
:102C500006A90EA8FFF7DAFCDDE90F0203920E9B2E
:102C600011990022DDF80CA00093049211B9791C8F
:102C700000EB010AB7EB0A0004D4C0F1FF3007F102
:102C8000010A0490AAEB0700019044E0012F00DA4A
:102C900001270021112F01DD112000E03846CDE988
:102CA000000106A90EA8FFF7B1FCDDE90F010E9A9D
:102CB0000391002104910092BA4621070CD4039994
:102CC000514500DA8A46BAF1010F05DD009AAAF1F2
:102CD0000101515C302908D0B84202DA10F1040F2A
:102CE00006DA0121CDE9011015E0AAF10101E9E7B9
:102CF000002805DC049901440491AAEB000102E0DC
:102D0000411C514500DD8A460499401A401C01903F
:102D10004FF000400290200704D40198504501DB99
:102D2000CDF8048000208DF84F0002980DF14F0778
:102D3000B0F1004F25D02B200E9002984FF00208E2
:102D400000280CDA404202902D200E9007E00A2164
:102D50000298FDF7E7FB3031029007F8011DB8F14A
:102D60000001A8F10108F2DC02980028EFD1791ED9
:102D70000E980870307800F0200040F0450007F809
:102D8000020D12A8C01B00F107081498007800B1CA
:102D9000012000EB0A01019801EBE0710598414424
:102DA000401A401E0590E00306D45B462146179A60
:102DB000059800F05DF805441498007818B15A465B
:102DC000179990476D1CE00324D55B462146179A5E
:102DD000059800F04DF805441CE00498002807DB36
:102DE000DDE90301884203DD0098405C179901E0AA
:102DF000179930205A469047049805F10105401C68
:102E000004900198401E019004D12E205A46179933
:102E100090476D1CBAF10001AAF1010ADDDC05E062
:102E200017F8010B5A46179990476D1CB8F100012D
:102E3000A8F10108F4DC5B462146179A0598ABE639
:102E40002D0000002B000000200000002DE9F041C3
:102E5000044600251E461746880404D405E039467A
:102E60002020B0476D1C641EF9D52846BDE8F081CE
:102E70002DE9F041044600251E469046C80301D5C1
:102E8000302700E02027880404D505E04146384675
:102E9000B0476D1C641EF9D52846BDE8F0810A686C
:102EA000531C0B60107070470346194813F5805F80
:102EB0002DD0DFF860C0BCF80E2009B9002A26D05A
:102EC000900301B91146B0FBF1F080B2A0F580404B
:102ED0009CF90D1000FB00F2D21151439CF80C201C
:102EE000D20100FB02104FF4801101EB60209CF92D
:102EF0000210A0314843001358439CF900104013BE
:102F000000EBC10010F5004F01D14FF000407047B9
:102F10000080FFFF0C0800200346194813F5805F6E
:102F20002DD0DFF860C0BCF80E2009B9002A26D0E9
:102F3000900301B91146B0FBF1F080B2A0F58040DA
:102F40009CF90D1000FB00F2D21151439CF80C20AB
:102F5000D20100FB02104FF4801101EB60209CF9BC
:102F60000310A0314843001358439CF9011040134B
:102F700000EBC10010F5004F01D14FF00040704749
:102F80000080FFFF0C08002070B4844600201CF570
:102F9000804F21D000291DD0114CB4F90620002A01
:102FA00018D0A388002B15D0B4F90E60B4F90850DE
:102FB00008B2811B69438910B4F90A4040005843A4
:102FC000ACEB040C00F50040C1EBCC3102EB20402F
:102FD00091FBF0F070BC704770BC02487047000075
:102FE0000C0800200080FFFF30B583B0044668461F
:102FF00001F0E8FC0546280001D003B030BDBDF863
:103000000610BDF90000FFF74FFF2060BDF8061065
:10301000BDF90200FFF780FF6060BDF80610BDF942
:103020000400FFF7B1FFA06003B0284630BD0000E8
:10303000F0B583B00746002602960196112002F0F3
:1030400039F90546694C606801690120884702F03A
:1030500037FD0544372002F02DF905446068016909
:10306000012088479A2002F025F90544606801692B
:1030700001208847C02002F01DF9054460680169FD
:1030800001208847012002F06BFE05446068016959
:103090000120884701A800F02BFF012002F012FE5A
:1030A0000544606801690120884701A800F0EEFE30
:1030B00002A800F005FF60680169012088479DF8BB
:1030C000080040F03000029002F028FE05446068DD
:1030D000016901208847002002F042FE0544606833
:1030E00001690120884701A800F002FF102002F0CA
:1030F000F3FA05446068016901208847012002F065
:1031000009FD0544606801690120884701A800F0B5
:1031100089FE022002F006FB054460680169012077
:10312000884701A800F064FE00F0C6F80544606816
:10313000016901208847402002F04CFD0544606889
:10314000016901208847012201A9042001F07EFCC9
:1031500005449DF8040038706068016901208847C3
:10316000062002F05BFD05444C2002F045FD0544BD
:10317000606801690120884700F0BEFF0544012016
:103180002070022001F08CFF05442670022002F01E
:1031900045FD054460680169012088474C2002F024
:1031A0002BFD0544062002F0E9FC05446068016936
:1031B00001208847422002F00DFD05446068016946
:1031C00001208847002002F0A5FC284445B2606831
:1031D00001690120884701A800F024FE60680169A8
:1031E0000120884703B02846F0BD000014000020ED
:1031F00070B504462F4D6868807801280AD00120F8
:1032000002F088FC064668680169012088470EB113
:10321000304670BD44B1012C2FD06FF001046868B6
:10322000807801283BD043E000F046F804460220B5
:1032300002F0F4FC044468680169012088474C20CE
:1032400002F0DAFC0444686801690520884701201F
:103250002870022001F024FF0444686801690120FD
:10326000884700202870422002F0B4FC204444B279
:103270006868016901208847D1E7002002F0CEFC90
:10328000044668680169012088474B2002F0B4FCBD
:10329000204444B26868016905208847BFE70020E0
:1032A00002F038FC204444B2686801690120884774
:1032B000204670BD14000020F8B5052500200090C0
:1032C0000024164E012002F0A9FC7068016902205A
:1032D00088474B2002F090FC706801690320884702
:1032E0004B2002F077FC70680169012088470122B9
:1032F0006946042001F0AAFB9DF8000000F00100DF
:10330000009018B9601CC4B2AC42DBD3AC4202D30B
:103310004FF0FF30F8BD0020F8BD00001400002081
:1033200003490122097802EBD1114843704700009C
:103330001500002003490122497802EBD1114843CE
:10334000704700001500002003490122897802EB34
:10335000D111484370470000150000200449097846
:1033600080314843C11700EB116000127047000024
:10337000150000200449097880314843C11700EB4B
:103380001160001270470000150000200449097800
:1033900080314843C11700EB1160001270470000F4
:1033A000150000202DE9FF4F83B007460D46002091
:1033B000009001900290002400265B49384602F0FC
:1033C0006BFDDFF868E10EF15808DEF8281011B344
:1033D000D8F800C0D8F808A0D8F80490EB46E01C54
:1033E00004EB4402531C0856CB5600FB0CF0921C15
:1033F00003FB09008A5602FB0A004BF82400601CFC
:10340000C4B2032CEBD300205BF8201048F8201046
:10341000401C0328F8DB0020454B012458F82010FD
:1034200083FB01C24FEAA20CACEBE272524202EB08
:10343000820201EB4202891A48F82010420004FA85
:1034400002F22A4202D0491C48F8201004EB400145
:1034500004FA01F1294204D058F82010891C48F8D8
:103460002010401CC0B20328D8D3069820B107B062
:103470004FF0FF30BDE8F08F9EF90E00F1460028B6
:1034800039D0012802D0022849D125E0294D6868A9
:103490008078012803D0012002F03CFB064608207A
:1034A00002F0BCFB8419686801690120884782200A
:1034B00002F0A2FB204446B26868016905208847F3
:1034C000022089F80E0068688078012827D1002042
:1034D00002F020FB064622E0059800BB002009EB25
:1034E000400237F810105182401C0328F7DB0020FF
:1034F00089F80E0013E02DB909F11201384602F0E7
:1035000085FC60B189F80E40002025B958F82010DC
:10351000C91C48F82010401CC0B20328F5D307B0DE
:103520003046BDE8F08F0000E40800208C08002041
:1035300067666666140000202DE9F04F87B00746E5
:10354000DDF8408089461E460020039004900590D7
:1035500000900190029000258246002403A938467D
:1035600000F012F90690DFF814C29CF86500411CC7
:103570000CEB40008CF86510A0F850609CF86500DA
:103580000A2802D300208CF865009CF86400401CD7
:10359000C0B28CF864000A2802D30A208CF86400B8
:1035A0009CF86400002808D90CEB4501B1F85010D4
:1035B0008A44691CCDB2A842F6D80AEB8A014900B8
:1035C00091FBF0F0A0F63C71039A0498059BB9F1C9
:1035D000000F18D0DCF8005005FB01F94FF47A75A4
:1035E00099FBF5F9A2EB0902DCF8049009FB01F95B
:1035F00099FBF5F9A0EB0900DCF8089009FB01F153
:1036000091FBF5F15B1AC11A18444542DCF80C0035
:10361000DCF81030484303FB050002EBC20303EB68
:103620000213DFF85CE100EB83008EFB00308310B7
:10363000A3EBE073DCF82C00DFF848A14343CAF8A1
:103640000030DCF81490DCF818B009FB02F90BFB31
:103650000199DCF81CB00BFB05998EFB09B94FEA08
:10366000A90BABEBE97909FB00F9CAF80490DCF887
:1036700020B00BFB02F2DCF824B00BFB0121DCF8DC
:10368000282002FB05118EFB01218A10A2EBE171BB
:1036900001FB00FBCAF808B0DCF84C10E9B10020CF
:1036A00000EB40028D5602F1010E5D4311F90EE070
:1036B000921C0EFB09558A5602FB0B556A464DF8C3
:1036C0002050401CC0B20328EAD3002052F820103A
:1036D0004AF82010401C0328F8DB0020284D012365
:1036E0005AF8201085FB01924FEAA209A9EBE27279
:1036F000524202EB820201EB4202891A4AF8201080
:10370000420003FA02F2224202D0491C4AF8201079
:1037100003EB400103FA01F1214204D05AF82010D2
:10372000891C4AF82010401CC0B20328D8D3B8F135
:10373000000F03D0069807B0BDE8F08F002C07DD1E
:103740009CF8480008B98CF848308CF8383002E012
:1037500000208CF8480000200CEB400237F81010D5
:10376000A2F86610401CC0B20328F5D30CEB400051
:10377000A0F86660069807B0BDE8F08F1C0800202E
:1037800067666666D8080020F0B400250022DFF8DE
:103790003CC00F4C0CEB020330F8126093F833700E
:1037A00034F81770F61B93F9397093F93030FB1A1F
:1037B0000CEB8207FF6B03FB076341F82230521CBE
:1037C000D2B2032AE6D32846F0BC70471C0800207A
:1037D000FA5E000870B584B00546002002900190A2
:1037E000032D09D104218DF80C1002218DF80D1044
:1037F0008DF80E008DF80F0002A800F0F9FA0446CB
:10380000FB4E012D0BD0022D09D0032D07D0062D24
:1038100005D0042D03D0072D01D0082D12D19DF81D
:10382000080002280ED1012001F0ECFB04443169AC
:1038300001208847002001F075FF204444B231691F
:10384000012088471DB1052D01D0062D0AD19DF814
:10385000080038B901A8FFF7EBFB204444B23169F6
:1038600001208847092D80F0A482DFE805F0057467
:10387000D9FEFDFCFBFAF900112001F01BFD044606
:1038800031691E208847152001F014FD0444316978
:103890001E208847022001F06FFA0444316901209C
:1038A0008847022001F006FE044431690120884760
:1038B000082001F02BFE04443169012088470021D3
:1038C000082001F085FA044431690120884700F09E
:1038D000BBFB0444316901208847012001F054FDFD
:1038E0000444316901208847012001F079FD044436
:1038F000316901208847012001F0EEFC0444316960
:1039000001208847012001F013FD0444012001F04B
:1039100093FD04443169012088470121002002F011
:103920004BF804443169012088470121084602F020
:1039300043F80444316901208847022001F0A8FDC2
:103940000444316901208847002000F045FD2044EF
:1039500044B200F02EBA112001F0ACFC04463169EB
:103960001E208847152001F0A5FC044431691E2063
:103970008847022001F000FA044431690120884799
:10398000022001F097FD0444316901208847082096
:1039900001F0BCFD04443169012088470021082062
:1039A00001F016FA044431690120884700F04CFB0D
:1039B0000444012001F0E8FC0444316901208847F7
:1039C000012001F089FC044431690120884701206D
:1039D00001F0AEFC0444316901208847012001F068
:1039E0002BFD04443169012088470121002001F0AA
:1039F000E3FF04443169012088470121084601F0B2
:103A0000DBFF0444316901208847022001F040FDBA
:103A10000444002000F0E0FC204444B200F0C9B9A6
:103A2000112001F047FC044631691E20884715200B
:103A300001F040FC044431691E208847022001F057
:103A40009BF90444316901208847022001F032FDCE
:103A50000444316901208847082001F057FD05E042
:103A600073E13DE103E1C9E09DE01DE004443169FB
:103A7000012088470021082001F0AAF90444316997
:103A800001208847082001F05FFA204444B23169E0
:103A90000120884701220021432002F08DF931697D
:103AA0000120884700F085B9112001F003FC04468D
:103AB00031691E208847022001F05EF90444316913
:103AC00001208847022001F0F5FC044431690120FF
:103AD0008847082001F01AFD044431690120884715
:103AE0000021082001F074F904443169012088475D
:103AF0000121002001F042FE044431690120884781
:103B00000121084601F03AFE04443169012088474A
:103B10000121022001F032FE04443169012088476E
:103B20000121002001F0ECFE0444316901208847A6
:103B30000121084601F0E4FE044431690120884770
:103B40000121022001F0DCFE044431690120884794
:103B50009DF80C0001F03CFD0444316901208847C8
:103B60009DF80D0001F08CFD044431690120884767
:103B70009DF80E0001F000FD0444316901208847E2
:103B80009DF80F0001F050FD044431690120884781
:103B9000184800F0E7FE0444174800F07DFA20447E
:103BA00044B200F006B9122001F084FB04463169EA
:103BB0001E208847142001F07DFB044431691E203B
:103BC0008847002001F0D8F8044431690120884773
:103BD0000021062001F0FCF80444316901208847E7
:103BE000054800F059FA204444B200F0E2B8000061
:103BF000F0090020280000202E000020112001F0F4
:103C000059FB044631691E208847152001F052FBFC
:103C1000044431691E208847022001F0ADF80444B5
:103C2000316901208847022001F044FC04443169D5
:103C3000012088470C2001F069FC0444316901200F
:103C4000884700210C2001F0C3F8044431690120A9
:103C50008847594800F086FE0444584800F01CFA92
:103C600004445748FFF7C0F9204444B2A1E01120B2
:103C700001F020FB044631691E208847152001F021
:103C800019FB044431691E208847002001F074F8B4
:103C90000444316901208847022001F00BFC0444F0
:103CA000316901208847092001F030FC0444316962
:103CB000012088470021092001F08AF80444316975
:103CC000012088473C4800F04DFE04443B4800F08A
:103CD000E3F904443A48FFF787F9204444B268E026
:103CE000112001F0E7FA044631691E2088471520AB
:103CF00001F0E0FA044431691E208847002001F0F9
:103D00003BF80444316901208847002001F0D2FBD0
:103D10000444316901208847092001F0F7FB04447D
:103D20003169012088470021092001F051F804443D
:103D3000316901208847204800F014FE04441F48E0
:103D400000F0AAF9204444B233E0112001F0B2FAA5
:103D50000446316901208847152001F0ABFA04447C
:103D6000316901208847002001F006F804443169D8
:103D700001208847002001F09DFB044431690120A7
:103D800088470A2001F0C2FB0444316901208847BA
:103D900000210A2001F01CF8044431690120884701
:103DA000054800F0DFFD0444044800F075F92044A4
:103DB00044B204B0204670BD280000202E00002030
:103DC000040A00207047000030B4024607484068EB
:103DD000002807D04478D0F80CC020460B4630BCF1
:103DE0002421604730BC6FF07E0070471400002033
:103DF00038B50446002000900948416800290CD0DD
:103E000048780123D1F808C06A466B21E0479DF845
:103E10000010C1F30111217038BD6FF07E0038BD74
:103E20001400002038B5044600200090094841687D
:103E300000290BD048780123D1F808C06A464C21EC
:103E4000E0479DF80010C909217038BD6FF07E0071
:103E500038BD00001400002038B504460020009052
:103E60000948416800290CD048780123D1F808C0DE
:103E70006A460321E0479DF8001001F0030121701C
:103E800038BD6FF07E0038BD1400002038B5044600
:103E9000002000900948416800290BD04878012390
:103EA000D1F808C06A467F21E0479DF80010C90993
:103EB000217038BD6FF07E0038BD00001400002076
:103EC00038B50446002000900848416800290AD00F
:103ED00048780123D1F808C06A460521E0479DF8DB
:103EE0000010217038BD6FF07E0038BD1400002036
:103EF00038B50446002000900948416800290CD0DC
:103F000048780123D1F808C06A467F21E0479DF830
:103F10000010C1F30111217038BD6FF07E0038BD73
:103F200014000020FFB581B0054616461F464FF627
:103F3000FF743B4602AA29460F480094FCF7B4FEE2
:103F400058B10D48FCF728FD3B4602AA29460A480D
:103F50000094FCF7A9FE0028F3D13B463246691CC9
:103F600005480094FCF79EFD044614B10248FCF796
:103F700013FD05B060B2F0BD3800002010B582B06E
:103F80008DF8041011788DF805104FF6FF7100912F
:103F90000146022301AA0648FCF786FE044624B126
:103FA0000348FCF7F9FC002CFAD102B0002010BD48
:103FB0003800002030B583B0014600220292019201
:103FC000124C616048780123D1F808C002AA002190
:103FD000E047054660689DF8082002700CA1104873
:103FE000FEF7F0FA0E48FCF7FDF882B241F2883392
:103FF0000B490C48FDF7A2FC012201A96C2001F03D
:10400000DBFE284440B203B030BD000014000020A5
:10401000424D493136305F49443A25640000000082
:104020000C0700207401002010B501F0DBFE0446EF
:104030000448FFF7BFFF04440220FFF7CBFB2044F6
:1040400040B210BDF009002070B50121002001F040
:10405000F7FD05460F4C05202169884701210846D8
:1040600001F0EEFD0544216905208847012100206B
:1040700001F0E4FC05442169052088470121084638
:1040800001F0DCFC284445B2216905208847284618
:1040900070BD0000F009002030B583B00446002058
:1040A000019002901348406800281ED045780623EE
:1040B000D0F808C001AA12212846E0479DF8041054
:1040C0009DF8052041EA022121809DF806109DF807
:1040D000072041EA022161809DF808109DF809201F
:1040E00041EA0221A18003B030BD03B06FF07E0031
:1040F00030BD000014000020F0B585B00020009015
:104100000190029003905D2001F064FD0546B04CE3
:10411000606801690120884701226946042000F097
:1041200095FC05446068016901208847A94E9DF807
:10413000000030705E2001F04DFD47196068016994
:10414000012088476D460122691C042000F07EFC96
:10415000074460680169012088479DF8010070707C
:10416000642001F037FD0744606801690120884739
:104170000122A91C042000F069FC07446068016961
:10418000012088479DF80200B070652001F022FDF3
:10419000074460680169012088470122E91C042066
:1041A00000F054FC074460680169012088479DF8CD
:1041B0000300F070712001F00DFD07446068016993
:1041C000012088470122291D042000F03FFC0744FC
:1041D00060680169012088479DF8040030737020F1
:1041E00001F0F8FC0744606801690120884701225A
:1041F000691D042000F02AFC074460680169012061
:1042000088479DF8050070736A2001F0E3FC0744BD
:1042100060680169012088470122A91D042000F07F
:1042200015FC074460680169012088476B2001F094
:10423000D1FC074460680169012088470122E91D1B
:10424000042000F003FC07446068016901208847EE
:104250009DF806009DF8071040EA0120B080682014
:1042600001F0B8FC07446068016901208847012219
:1042700005F10801042000F0E9FB074460680169CA
:1042800001208847692001F0A5FC074460680169A6
:1042900001208847012205F10901042000F0D6FB26
:1042A000074460680169012088479DF808009DF86F
:1042B000091040EA0120F0806E2001F08BFC0744D9
:1042C0006068016901208847012205F10A01042084
:1042D00000F0BCFB074460680169012088476F203B
:1042E00001F078FC074460680169012088470122D9
:1042F00005F10B01042000F0A9FB07446068016987
:10430000012088479DF80A009DF80B1040EA012023
:104310003081622001F05EFC074460680169012081
:104320008847012205F10C01042000F08FFB0744AF
:104330006068016901208847632001F04BFC074455
:104340006068016901208847012205F10D01042000
:1043500000F07CFB074460680169012088479DF8F4
:104360000C009DF80D1040EA012070816C2001F0D6
:1043700031FC07446068016901208847012205F18A
:104380000E01042000F062FB07446068016901200F
:1043900088476D2001F01EFC074460680169012018
:1043A0008847012205F10F01042000F04FFB38443B
:1043B00045B260680169012088479DF80E009DF8AC
:1043C0000F1040EA0120F08105B02846F0BD000042
:1043D000140000200C08002000B5ADF64C6D01461D
:1043E0006A464FF4806000F003F80DF64C6D00BD96
:1043F0002DE9F74F86B0804615464FF0000900279B
:10440000BA4600260024A346002085F8B60D85F89C
:10441000B80D85F8B70D4146FB48FFF7D5FC0146BE
:10442000B8F1000F40F29582F74A05EB0B03105DDF
:1044300083F8B90D00F0FC000BF1010303F0FF0B52
:10444000882852D010DC482800F0648206DC40281E
:1044500000F05382442816D100F039BA802800F0C9
:10446000668284280FD114E0942800F0708104DC67
:104470008C286FD0902806D162E0982800F0CA817D
:104480009C2800F0EA800126002E40F0628200F0B5
:104490005DBA601C84B2A31D434502D94FF0FF36BC
:1044A000F2E7101912F804C042784CEA022C09EB2A
:1044B000490225F812C090F802C0C47805EB420208
:1044C0004CEA042CA2F802C090F804C040794CEAEF
:1044D0000020908095F8B60D401C85F8B60D9CB272
:1044E00009F1010000F0FF09CEE7601C84B2A31DB2
:1044F000434502D96FF00106C6E7101912F804C04F
:1045000042784CEA022C07EB470205EB4202A2F884
:1045100044CA90F802C0C4784CEA042CA2F846CAF7
:1045200090F804C040794CEA0020A2F8480A95F8B7
:10453000B70D401C85F8B70D9CB2781CC7B2A3E735
:10454000601C84B204F108000590404503D96FF067
:10455000020699E734E0AD49105D08701019427801
:104560004A7082788A70C278CA7002790A71427978
:104570004A7182798A71C079C8710839079A886846
:10458000C9680191009000F077FA0146A04A07EB54
:10459000470005EB80001368C0F86C335368C0F81F
:1045A00070339268C0F8742395F8B80D401C85F8F4
:1045B000B80D0AF1010000F0FF0A059884B263E724
:1045C000601C84B204F10C03434502D96FF003066A
:1045D0005AE7101912F804C042784CEA022C07EB93
:1045E000470205EB4202A2F844CA90F802C0C47820
:1045F0004CEA042CA2F846CA90F804C044794CEA6C
:10460000042CA2F848CA95F8B72D521C85F8B72D8E
:10461000827990F807C042EA0C2C09EB490225F890
:1046200012C090F808C0447A05EB42024CEA042C10
:10463000A2F802C090F80AC0C07A4CEA002090802C
:1046400095F8B60D401C85F8B60D9CB2781CC7B223
:1046500009F1010000F0FF0916E7601C84B204F1C3
:1046600014000490404502D96FF006060CE7674835
:10467000115D0170144461784170A1788170E17816
:10468000C1702179017161794171A1798171E179FB
:10469000C171A0F10801079A8868C968019100906A
:1046A00000F0EAF901465A4A0AEB4A0005EB80009D
:1046B0001368C0F86C335368C0F870339268C0F860
:1046C000742395F8B80D401C85F8B80D207A627AED
:1046D00040EA022207EB470005EB4000A0F8442A1D
:1046E000A27AE37A42EA0322A0F8462A227B637B7D
:1046F00042EA0322A0F8482A95F8B70D401C85F835
:10470000B70DA07BE27B40EA022209EB490025F8C5
:104710001020237C627C05EB400043EA02224280A9
:10472000A27CE37C42EA0322828095F8B60D401C0D
:1047300085F8B60D049884B209F1010000F0FF0974
:104740000AF1010000F0FF0A781CC7B29CE6601C69
:1047500084B204F10E000390404502D96FF00406C4
:1047600092E62A48115D0170144461784170A17885
:104770008170E178C1702179017161794171A1790C
:104780008171E179C171A0F10801079A8868C9684F
:104790000191009000F070F901461D4A0AEB4A00B1
:1047A00005EB80001368C0F86C335368C0F87033B1
:1047B0009268C0F8742395F8B80D401C85F8B80DC0
:1047C000207A627A40EA022209EB490025F810209B
:1047D000A27AE37A05EB400042EA03224280227B80
:1047E000637B42EA0322828095F8B60D401C85F86F
:1047F000B60D039884B209F1010000F0FF090AF137
:10480000010000F0FF0A3FE60C0300201C0000201E
:10481000CC080020601C84B204F10E0002904045D8
:1048200002D96FF005062FE64C48115D0170144463
:1048300061784170A1788170E178C170217901714E
:1048400061794171A1798171E179C171A0F10801AA
:10485000079A8868C9680191009000F00DF9014637
:104860003F4A0AEB4A0005EB80001368C0F86C333E
:104870005368C0F870339268C0F8742395F8B80D87
:10488000401C85F8B80D207A627A40EA022207EBD4
:10489000470005EB4000A0F8442AA27AE37A42EAF6
:1048A0000322A0F8462A227B637B42EA0322A0F877
:1048B000482A95F8B70D401C85F8B70D029884B2C8
:1048C0000AF1010000F0FF0A781CC7B2DCE5601CA9
:1048D00084B2E01C404502D96FF00806D4E51319F4
:1048E000125D93F802C05B784FEA0C4C4CEA03234C
:1048F0001A43C5F8B02D84B2C6E5601C84B2601CB2
:10490000404502D96FF00706BEE5125D85F8B42D6B
:1049100084B2B9E5601C84B2601C404502D96FF0D6
:104920000A06B1E5125D85F8B52D84B2ACE5601CD0
:1049300084B2601C404502D96FF00906A4E5125DFF
:1049400012B16FF009069FE584B29DE54445FFF47E
:104950006BAD09B00846BDE8F08F00001C000020D8
:10496000CC08002030B583B00446002001900290AE
:104970001348406800281ED045780623D0F808C0A8
:1049800001AA0C212846E0479DF804109DF8052057
:1049900041EA022121809DF806109DF8072041EA96
:1049A000022161809DF808109DF8092041EA02214A
:1049B000A18003B030BD03B06FF07E0030BD0000B9
:1049C0001400002030B583B0044600200090019010
:1049D0001D484068002833D045780823D0F808C027
:1049E0006A4604212846E04701469DF80000C008B9
:1049F0008DF800009DF9012040EA421020809DF8CA
:104A00000200C0088DF802009DF9032040EA421020
:104A100060809DF8040040088DF804009DF9052091
:104A200040EAC210A0809DF8060080088DF80600BC
:104A30009DF9072040EA8210E08003B0084630BDAF
:104A400003B06FF07E0030BD1400002030B4054686
:104A500008484068002808D0447813460A46D0F831
:104A600008C02946204630BC604730BC6FF07E004D
:104A700070470000140000202DE9F74F8EB0002091
:104A80000C90002109900A900B90069007900890D6
:104A9000049005900290039084469DF839A09DF8FB
:104AA00038000D9040EA0A200FFA80FB9DF83B0089
:104AB0009DF83A409DF83C609DF83D7044EA002323
:104AC00046EA07259DF83E809DF83F901BB22DB227
:104AD000052A80F04081DFE802F0031C2C3B8600B1
:104AE0004FEAEB02DE106D1048EA092087083946CC
:104AF0001046FEF7D9F99B4C206039463046FEF748
:104B00000BFA606039462846FEF73EFAA06000F0D6
:104B100025B91C465846FEF703FC924B1860204608
:104B2000FEF708FC58602846FEF70EFC986000F07F
:104B300015B95846FEF712FC8A4A10601846FEF76F
:104B400019FC50602846FEF721FC906000F006B981
:104B50000D9AD5090D9A4FF47E7303EAC20242EA18
:104B60005A134FF4FE5202EA841444EA9000ADF85E
:104B7000080002EA861040EA9700ADF80A0002EA4F
:104B8000881040EA9900ADF80C0041F6FE7602ACC0
:104B9000012234F81100B04206D14F0002FA07F7A3
:104BA00047EA0C0C0CF0FF0C38B902EB410002FA9A
:104BB00000F040EA0C0000F0FF0C481CC1B20329D1
:104BC000E7D34FFA8CF2012102A80095FEF7B4FC5E
:104BD0000C906549A1F10C000A6802604A684260C5
:104BE00089688160BAE0E309C4F38012DDF834C05B
:104BF0004AEA0C2504F03F0C40EA0C20ADF8100006
:104C000047EA0620ADF8120049EA0820ADF8140082
:104C1000DFF858C104AC0CEB410634F81100B08544
:104C2000481CC1B20329F6D30CEB410085859CF8E2
:104C30000D00012865D1002006A934F81050A5F513
:104C4000005541F82050401CC0B20328F5D39CF910
:104C500000000799089D48439CF9011001FB0500DD
:104C6000069900EBC1119CF80C004143CD1701EBF4
:104C7000D541491309919CF90210069D079E69438D
:104C8000BCF9045005FB06119CF90650089E05FB73
:104C900006114143CD1701EBD54149130A919CF907
:104CA0000710069D079E69439CF90850BCF90AC08D
:104CB00005FB0611089D0CFB05114843C11700EBCD
:104CC000D14040130B900020DFF8A4C04FF40055F2
:104CD00009A951F8206016F5005F01DA41F820C0FB
:104CE00051F82060B6F5005F01DD41F8205031F841
:104CF000206006F5005624F81060401CC0B203285E
:104D0000E7D30021002043F6FF76012534F810C0D8
:104D1000B44504D3470005FA07F73943C9B2BCF1DB
:104D2000000F06D105EB400C05FA0CFC4CEA010122
:104D3000C9B2401CC0B20328E8D304A8FEF732FB76
:104D40000C900C49A1F118000A6802604A684260A0
:104D50008968816002E06FF001000C900C9811B03E
:104D6000BDE8F08FCC080020D80800208C08002077
:104D700000E0FFFFE4080020F8B5044600200090A2
:104D8000124D686800281AD0072C1BD846780123DA
:104D9000D0F808C06A4640213046E04700280DD1CF
:104DA0009DF8000064F306100090696801236A46CC
:104DB0004878D1F804C04021E04740B2F8BD6FF018
:104DC0007E00F8BD6FF00100F8BD00001400002067
:104DD0002DE9F843044688464FF0FF350020009047
:104DE0000026012757484068002808D0A8F1040091
:104DF000062808D8012000F0D9F805460EE06FF02B
:104E00007E00BDE8F883A8F10100022802D9B8F1BC
:104E1000000F03D1002000F0C9F80546B8F10B0FD0
:104E20006AD2DFE808F0454E5760060F18212A3392
:104E30003C00601E092802D8264600275EE06FF07D
:104E400001055BE0601E082802D82646002755E0D1
:104E50006FF0010552E0601E072802D826460027A1
:104E60004CE06FF0010549E0601E062802D8264696
:104E7000002743E06FF0010540E0601E052802D8DE
:104E8000264600273AE06FF0010537E0601E04284F
:104E900002D82646002731E06FF001052EE0601EA3
:104EA000032802D82646002728E06FF0010525E0F8
:104EB000601F072802D8264600271FE06FF0010573
:104EC0001CE0601F072802D82646002716E06FF076
:104ED000010513E0601F072802D8264600270DE0D1
:104EE0006FF001050AE0601F072802D82646002758
:104EF00004E06FF0010501E06FF001051FB16FF0F4
:104F00000100BDE8F8830F4F01236A46786840210D
:104F10004478D0F808C02046E047284440B2002832
:104F2000EFD19DF8000066F303000090796801233B
:104F30006A464878D1F804C04021E04740B2BDE855
:104F4000F883000014000020F8B50446002000900B
:104F5000154D686800280AD0032C0BD0052C09D009
:104F6000082C07D00C2C05D06FF00100F8BD6FF0B5
:104F70007E00F8BD46780123D0F808C06A4641217A
:104F80003046E0470028F4D19DF8000064F30300A8
:104F90000090696801236A464878D1F804C041212D
:104FA000E04740B2F8BD000014000020F8B5044608
:104FB00000200090124D686800281AD0012C1BD8E0
:104FC00046780123D0F808C06A4640213046E047C1
:104FD00000280DD19DF8000064F3C71000906968A7
:104FE00001236A464878D1F804C04021E04740B226
:104FF000F8BD6FF07E00F8BD6FF00100F8BD000055
:105000001400002070B50546112000F053F9044645
:10501000224E7068016901208847706880780128F5
:1050200008D0012000F076FD204444B27068016988
:105030000120884745B1012D13D06FF0010470683D
:10504000807801281FD027E000F03AFD04440020BA
:10505000FEF7CEF8204444B2706801690120884709
:10506000EDE70120FEF7C4F80444706801690120EF
:105070008847182000F01EF9204444B27068016986
:1050800005208847DBE7002000F044FD204444B2BF
:105090007068016901208847204670BD1400002017
:1050A00070B50446824D69688978012902D00120D3
:1050B00000F030FD012C0DD0022C3DD0032C6DD022
:1050C000042C7DD06FF001042878002800F0CC80FB
:1050D00000F0EBB8012000F0A1FD0446686801690A
:1050E00001208847512000F087FD04446868016969
:1050F00001208847022000F091FD0444686801699E
:1051000001208847522000F077FD04446868016957
:1051100001208847022000F081FD0444686801698D
:10512000012088474C2000F067FD204444B26868A5
:10513000016901208847C7E7042000F06FFD04469D
:105140006868016901208847512000F055FD04443A
:1051500068680169012088470E2000F05FFD044463
:105160006868016901208847522000F045FD044429
:105170006868016901208847022000F04FFD04445F
:1051800068680169012088474C2000F035FD204403
:1051900044B2686801690120884795E7172000F04C
:1051A0003DFD04466868016901208847512000F0F0
:1051B00023FD04446868016901208847522000E00B
:1051C00020E000F02BFD0444686801690120884755
:1051D000522000F011FD04446868016901208847ED
:1051E0002A2000F01BFD04446868016901208847FB
:1051F0004C2000F001FD204444B2686801690120A0
:10520000884761E7072000F009FD044668680169E6
:1052100001208847512000F0EFFC044468680169D0
:10522000012088471A2000F0F9FC044468680169ED
:1052300001208847522000F0DFFC044468680169BF
:1052400001208847022000F0E9FC044468680169F5
:10525000012088474C2000F0CFFC204444B268680D
:105260000169012088472FE7022000F0D7FC0444A1
:1052700068680169012088474C2000F0BDFC0444A7
:105280006868016905208847422000F0A3FC20449B
:1052900044B26868016901208847686880780128FD
:1052A00003D1002000F036FC0446204670BD00000B
:1052B0001400002001B507484168002907D048784C
:1052C0000123D1F804C06A467E21E04708BD6FF093
:1052D0007E0008BD14000020F8B5044600200090B0
:1052E000124D686800281AD0012C1BD8467801237B
:1052F000D0F808C06A4647213046E04700280DD163
:105300009DF8000064F386100090696801236A46E6
:105310004878D1F804C04721E04740B2F8BD6FF0AB
:105320007E00F8BD6FF00100F8BD00001400002001
:10533000F8B5044600200090124D686800281AD085
:10534000012C1BD846780123D0F808C06A464721B3
:105350003046E04700280DD19DF8000064F3C710E7
:105360000090696801236A464878D1F804C0472153
:10537000E04740B2F8BD6FF07E00F8BD6FF001006D
:10538000F8BD000014000020F8B50446002000908D
:10539000124D686800281AD0012C1BD846780123CA
:1053A000D0F808C06A4647213046E04700280DD1B2
:1053B0009DF8000064F304100090696801236A46B8
:1053C0004878D1F804C04721E04740B2F8BD6FF0FB
:1053D0007E00F8BD6FF00100F8BD00001400002051
:1053E000F8B5044600200090124D686800281AD0D5
:1053F000012C1BD846780123D0F808C06A46472103
:105400003046E04700280DD19DF8000064F34510B8
:105410000090696801236A464878D1F804C04721A2
:10542000E04740B2F8BD6FF07E00F8BD6FF00100BC
:10543000F8BD000014000020F8B5044600200090DC
:10544000124D686800281AD0012C1BD84678012319
:10545000D0F808C06A4647213046E04700280DD101
:105460009DF8000064F341000090696801236A46DA
:105470004878D1F804C04721E04740B2F8BD6FF04A
:105480007E00F8BD6FF00100F8BD000014000020A0
:1054900001B507484168002907D048780123D1F8B1
:1054A00004C06A464621E04708BD6FF07E0008BD93
:1054B00014000020F8B5044600200090124D6868E2
:1054C00000281AD0032C1BD846780123D0F808C036
:1054D0006A4642213046E04700280DD19DF8000081
:1054E00064F305100090696801236A464878D1F892
:1054F00004C04221E04740B2F8BD6FF07E00F8BD25
:105500006FF00100F8BD000014000020F8B504465B
:1055100000200090174D6868002825D00E2C26D258
:105520002CB3012C23D0022C21D0032C1FD0042C0F
:105530001DD0052C1BD046780123D0F808C06A4640
:1055400042213046E04700280DD19DF8000064F369
:1055500003000090696801236A464878D1F804C0C6
:105560004221E04740B2F8BD6FF07E00F8BD6FF019
:105570000100F8BD14000020F8B50446002000909A
:10558000124D686800281AD0012C1BD846780123D8
:10559000D0F808C06A466C213046E04700280DD19B
:1055A0009DF8000064F345100090696801236A4685
:1055B0004878D1F804C06C21E04740B2F8BD6FF0E4
:1055C0007E00F8BD6FF00100F8BD0000140000205F
:1055D000F8B5044600200090124D686800281AD0E3
:1055E000072C1BD846780123D0F808C06A466C21E6
:1055F0003046E04700280DD19DF8000064F302001A
:105600000090696801236A464878D1F804C06C218B
:10561000E04740B2F8BD6FF07E00F8BD6FF00100CA
:10562000F8BD000014000020F8B5044600200090EA
:10563000124D686800281AD0012C1BD84678012327
:10564000D0F808C06A466C213046E04700280DD1EA
:105650009DF8000064F386100090696801236A4693
:105660004878D1F804C06C21E04740B2F8BD6FF033
:105670007E00F8BD6FF00100F8BD000014000020AE
:10568000F8B5044600200090124D686800281AD032
:10569000032C1BD846780123D0F808C06A466C2139
:1056A0003046E04700280DD19DF8000064F3C400A7
:1056B0000090696801236A464878D1F804C06C21DB
:1056C000E04740B2F8BD6FF07E00F8BD6FF001001A
:1056D000F8BD000014000020F8B50446002000903A
:1056E0000F4D6868002818D046780123D0F808C00C
:1056F0006A464B213046E04700280DD19DF8000056
:1057000064F347000090696801236A464878D1F83D
:1057100004C04B21E04740B2F8BD6FF07E00F8BDF9
:1057200014000020F8B5044600200090124D68686F
:1057300000281AD0032C1BD846780123D0F808C0C3
:105740006A466B213046E04700280DD19DF80000E5
:1057500064F305100090696801236A464878D1F81F
:1057600004C06B21E04740B2F8BD6FF07E00F8BD89
:105770006FF00100F8BD00001400002038B50C46A1
:10578000002100915D4D6A68002A08D0082880F049
:10579000B180DFE800F0071F37AF4F677F976FF0EA
:1057A0007E0038BD50780123D2F808C06A465021E7
:1057B000E0470028F5D19DF8000064F30000009058
:1057C000696801236A464878D1F804C05021E0474F
:1057D00040B238BD50780123D2F808C06A46502143
:1057E000E0470028F5D19DF8000064F341000090E7
:1057F000696801236A464878D1F804C05021E0471F
:1058000040B238BD50780123D2F808C06A46502112
:10581000E0470028F5D19DF8000064F38200009075
:10582000696801236A464878D1F804C05021E047EE
:1058300040B238BD50780123D2F808C06A465021E2
:10584000E0470028F5D19DF8000064F304100090B3
:10585000696801236A464878D1F804C05021E047BE
:1058600040B238BD50780123D2F808C06A465021B2
:10587000E0470028F5D19DF8000064F34510009042
:10588000696801236A464878D1F804C05021E0478E
:1058900040B238BD50780123D2F808C06A46502182
:1058A000E0470028F5D19DF8000064F386100090D1
:1058B000696801236A464878D1F804C05021E0475E
:1058C00040B238BD50780123D2F808C06A46502152
:1058D000E0470028F5D19DF8000064F3C710009060
:1058E000696801236A464878D1F804C05021E0472E
:1058F00040B238BD6FF0010038BD00001400002038
:1059000038B50C46002100912A4D6A68002A06D05D
:1059100040B101281ED0022834D0881E38BD6FF057
:105920007E0038BD50780123D2F808C06A46522163
:10593000E0470028F5D19DF8000064F300000090D6
:10594000696801236A464878D1F804C05221E047CB
:1059500040B238BD50780123D2F808C06A465221BF
:10596000E0470028F5D19DF8000064F34100009065
:10597000696801236A464878D1F804C05221E0479B
:1059800040B238BD50780123D2F808C06A4652218F
:10599000E0470028F5D19DF8000064F382000090F4
:1059A000696801236A464878D1F804C05221E0476B
:1059B00040B238BD1400002038B50C4600210091DB
:1059C0001D4D6A68002A04D030B101281CD0881E01
:1059D00038BD6FF07E0038BD50780123D2F808C082
:1059E0006A465621E0470028F5D19DF8000064F38F
:1059F00086100090696801236A464878D1F804C08F
:105A00005621E04740B238BD50780123D2F808C093
:105A10006A465621E0470028F5D19DF8000064F35E
:105A200082000090696801236A464878D1F804C072
:105A30005621E04740B238BD1400002038B50C466E
:105A4000002100911D4D6A68002A04D030B1012860
:105A50001CD0881E38BD6FF07E0038BD5078012301
:105A6000D2F808C06A465321E0470028F5D19DF8D6
:105A7000000064F341000090696801236A46487899
:105A8000D1F804C05321E04740B238BD507801231B
:105A9000D2F808C06A465321E0470028F5D19DF8A6
:105AA000000064F345100090696801236A46487855
:105AB000D1F804C05321E04740B238BD14000020A3
:105AC000F8B5052400200090114D68680169012097
:105AD00088471920FFF7EEFB6868016901208847B5
