:020000040800F2
:10000000A0050020C1010008C9010008CB010008BB
:10001000CD010008CF010008D10100080000000058
:10002000000000000000000000000000D3010008F4
:10003000D501000800000000D7010008051F0008D6
:10004000DB010008DB010008DB010008DB01000820
:10005000DB010008DB010008DB010008DB01000810
:10006000DB010008DB010008DB010008DB01000800
:10007000DB010008DB010008DB010008DB010008F0
:10008000DB010008DB010008DB010008DB010008E0
:10009000DB010008DB010008DB010008DB010008D0
:1000A000DB010008DB010008DB010008DB010008C0
:1000B000DB010008DB010008DB010008DB010008B0
:1000C000DB010008DB010008DB010008DB010008A0
:1000D000DB010008DB010008DB010008DB01000890
:1000E000DB010008DB010008DB010008DB01000880
:1000F000DB010008DB010008DB010008DB01000870
:10010000DB010008DB010008DB010008DB0100085F
:10011000DB010008DB010008DB010008DB0100084F
:10012000DB010008DB010008DB010008DB0100083F
:10013000DB010008DB010008DB010008DB0100082F
:10014000DB010008DB010008DB010008DB0100081F
:10015000DB010008DB010008DB010008DB0100080F
:10016000F1160008E5160008DB010008DB010008B5
:10017000DB010008DB010008DB01000800000000D3
:10018000DB010008DB010008DB010008DB010008DF
:10019000DB010008DB010008DB010008DB010008CF
:1001A0000000000000000000DB010008DFF80CD0B8
:1001B00000F036F800480047A9240008A0050020F8
:1001C0000648804706480047FEE7FEE7FEE7FEE7F1
:1001D000FEE7FEE7FEE7FEE7FEE7FEE7AD1F0008ED
:1001E000AD010008421C10F8011B0029FBD1801A48
:1001F000704730B50B46014600202022012409E05B
:1002000021FA02F59D4205D303FA02F5491B04FACF
:1002100002F52844151EA2F10102F1DC30BD0000F8
:10022000064C074D06E0E06840F0010394E8070043
:1002300098471034AC42F6D3FFF7BCFFEC2400081B
:100240000C25000810B500216C2001F039FE1421A6
:10025000032001F035FE2821402001F031FE082165
:10026000412001F02DFE2821422001F029FE01212C
:10027000432001F025FE002010BD31B500F018F933
:10028000044600F015F90099001B8842F9D338BDE7
:100290002DE9F84F0022DFF80492DFF8FC814FF0DF
:1002A000010E0F2709F1040A0EFA02F50B682B4024
:1002B000AB427CD1D1F804C0BCF1020F02D0BCF13A
:1002C000120F14D14FEAD20C00EB8C04266A4FEACD
:1002D000427C4FEADC6C07FA0CFB26EA0B06D1F8ED
:1002E00010B00BFA0CFC4CEA060CC4F820C00668EF
:1002F0004FEA420C032404FA0CF4A64391F804B02C
:100300000BF0030B0BFA0CFB4BEA060606604E687B
:10031000012E05D0022E03D0112E01D0122E11D1A4
:100320008668A643D1F80CB00BFA0CFB4BEA060624
:100330008660466826EA05050E79C6F300169640E3
:1003400035434560C56825EA04048D6805FA0CFC50
:100350004CEA040CC0F80CC0D1F804C01CF0805F5B
:1003600075D0D8F800C04CF4804CC8F800C0D8F85C
:1003700000C00CF4804CCDF800C022F0030C0CF14E
:10038000804505F59835D5F808C89407240F07FA75
:1003900004F62CEA0606A0F1804CBCF5003C5CD0CB
:1003A000BCF5806C5CD0BCF5806C5CD000E04EE0AD
:1003B000BCF5806C5AD0BCF5806C5AD0BCF5806C12
:1003C0005AD0BCF5806C5AD0BCF5806C5AD0BCF5C4
:1003D000806C5AD0BCF5806C5AD04FF00A0C0CFAE5
:1003E00004FC4CEA060CC5F808C8D9F800C02CEA91
:1003F000030C4C6814F4803F01D04CEA030CC9F89C
:1004000000C0DAF800C02CEA030C4C6814F4003F7A
:1004100001D04CEA030CCAF800C0214CD4F800C04B
:100420002CEA030C4D6815F4801F01D04CEA030C34
:10043000C4F800C01B4CD4F800C02CEA030C4D6873
:1004400015F4001F01D04CEA030CC4F800C0521C84
:10045000102AFFF429AFBDE8F88F4FF0000CBEE77B
:100460004FF0010CBBE74FF0020CB8E74FF0030C64
:10047000B5E74FF0040CB2E74FF0050CAFE74FF0D3
:10048000060CACE74FF0070CA9E74FF0080CA6E705
:100490004FF0090CA3E7000044380240003C014043
:1004A000083C01400C3C01404269514041617047A9
:1004B00001480068704700000000002010B50446A5
:1004C00020684169C1F300214268C2F3002200297B
:1004D00008D0012A06D1A16B41F00101A1636FF49C
:1004E0008071416120684169C1F340214268C2F3D3
:1004F000002241B1012A06D1A16B41F00201A163A2
:100500006FF40071416120684169C1F38021426844
:10051000C2F3002291B1012A10D1816901F00102D8
:10052000638D94F835101A4301D1122911D0A16BB3
:1005300041F00401A1636FF4806141612068416969
:10054000C1F3C0214268C2F3002269B1012A04D07C
:100550000AE0204601F08CFAF0E7A16B41F00801B7
:10056000A1636FF400614161A06B00280AD00120F3
:1005700084F835002068016821F40061016020469C
:1005800000F09BF810BD30B401688A6912F0010FC9
:100590003BD08A6912F0040F1BD04A69C2F3C01C19
:1005A0004A68C2F380234A69C2F380024968C1F3F2
:1005B0004021BCF1000F02D0012B00D132B1012A41
:1005C00079D1012977D130BC01F0D8B930BC01F024
:1005D000FCB94A69C2F3801C4A68C2F380234A69A5
:1005E000C2F380024968C1F34021BCF1000F02D080
:1005F000012B00D132B1012A5DD101295BD130BC80
:1006000001F07CB830BC01F0C3B84A69C2F34003C2
:100610004A68C2F34022D1F814C0CCF3001C8C69A4
:10062000C4F380040BB1012A03D0BCF1010F03D045
:1006300004E030BC01F014BA012A13D0012C14D00C
:100640004A69C2F3801C4A68C2F380234A69C2F334
:1006500080024968C1F34021BCF1000F21D0012B79
:100660001ED01EE030BC01F019BA4A69C2F3C013B3
:100670004A68C2F3802C4A69C2F380024968C1F318
:1006800040211BB1BCF1010F00D132B1012A12D1BE
:10069000012910D130BC01F0C7B930BC01F0D2B98A
:1006A00032B1012A07D1012905D130BC01F0A0B92E
:1006B00030BC01F0ABB930BC70477047806B7047FD
:1006C00070B50446002C04D094F83500002510B114
:1006D00006E0012070BD84F83450204600F0FEF999
:1006E000022084F835002068016821F001010160D2
:1006F00000F072FC3249B0FBF1F122685160314ADE
:100700006368934201D8491C07E04FF4967359433C
:100710004FF47A73B1FBF3F1491C236819626168E5
:1007200091420BD84900B0FBF1F2C2F30B02042A4C
:1007300001D204201AE0B0FBF1F017E0A2688AB3FE
:1007400001EBC10303EB0113B0FBF3F343F480436C
:100750001B051B0D2CD06AB301EBC10202EB01118A
:10076000B0FBF1F040F4804040F400402168C861E3
:10077000216AE069084321680860E168206908434C
:1007800021688860A169606908432168C8602068A1
:10079000016841F001010160A563012084F8350082
:1007A000002070BDFFE701EB4103B0FBF3F3CFE79F
:1007B0000120DBE701EB4101B0FBF1F0D4E70000E1
:1007C00040420F00A0860100704770472DE9F84FA6
:1007D0000446DDF828A00F4615461E4694F835005D
:1007E000012802D00220BDE8F88F5DB156B142F277
:1007F000107301227349204601F069F928B10220E3
:10080000BDE8F88F0120BDE8F88F94F83400012886
:100810001DD04FF0010984F834902068016821F45C
:1008200000610160222084F835004FF00008C4F810
:10083000388052463946204600F0DEFF78B1A06B82
:10084000042807D084F834800320BDE8F88F022004
:10085000BDE8F88F84F834800120BDE8F88F012EC0
:100860001ED0022E2AD02068016841F48061016008
:100870002068416980690090534FDFF850B1032E22
:100880007BD8012E29D0022E37D05346002239467C
:10089000204601F01CF9002848D00320BDE8F88F5D
:1008A0002068016821F480610160206841698169E4
:1008B0000091016841F400710160DDE72068016882
:1008C00021F4806101602068016841F400610160E9
:1008D0002068416980690090CEE75346002259465E
:1008E000204601F0F4F810B10320BDE8F88F20682D
:1008F000006905F8010B002659E0534600223946ED
:10090000204601F0E4F810B10320BDE8F88F20681C
:10091000016841F400710160206800692870681C5A
:10092000216809690170451C002640E020680168C3
:1009300021F4806101602068006905F8010B701ED8
:1009400086B2534600223946204601F0C0F810B165
:100950000320BDE8F88F2068016841F40071016050
:10096000206800692870681C711E22681269027074
:10097000451C481E86B21AE0FFE75346002259463E
:10098000204601F0A4F810B10320BDE8F88F2068DC
:10099000006905F8010B701E86B22068416911F0EC
:1009A000040F04D0006905F8010B701E86B2002EFA
:1009B0007FF465AF84F8359084F834800020BDE87A
:1009C000F88F000002001000040001004000010048
:1009D0002DE9F84F0446DDF828908A4615461E4654
:1009E00094F83500012802D00220BDE8F88F5DB1EF
:1009F00056B142F2107301223549204601F067F8E2
:100A000028B10220BDE8F88F0120BDE8F88F94F8E6
:100A1000340001281BD04FF0010884F8348020688E
:100A2000016821F400610160122084F8350000277C
:100A3000A7634A465146204600F05AFF78B1A06BA2
:100A4000042807D084F834700320BDE8F88F022012
:100A5000BDE8F88F84F834700120BDE8F88F206875
:100A6000416980690090DFF86CA04B460022514636
:100A7000204601F02CF810B10320BDE8F88F216862
:100A800015F8010B0861701E86B22068416911F0EB
:100A9000040F05D026B115F8011B0161701E86B246
:100AA000002EE2D14B4600225146204601F00FF8BD
:100AB00010B10320BDE8F88F2068016841F400718F
:100AC000016084F8358084F834700020BDE8F88F28
:100AD000020010008000010070477047F0B587B039
:100AE0000068A0F18041B1F5B84131D14FF40070F8
:100AF00002901224039401250495032605960427E9
:100B0000069702A91348FFF7C3FB2802029003943B
:100B100004950596069702A90F48FFF7B9FB0F4801
:100B2000016841F400010160006800F400000190D8
:100B300000221146482000F05FF8482000F050F8ED
:100B400000221146492000F057F8492000F048F8EB
:100B500007B0F0BD000802400000024040380240EB
:100B60007047704702480168491C016070470000E7
:100B70000000002010B50B48016841F400710160CD
:100B8000016841F480610160016841F48071016095
:100B9000032000F065F8002000F006F800F015F8DA
:100BA000002010BD003C024010B5044600F0FAF9E8
:100BB0004FF47A72B0FBF2F000F0A8FC002221465C
:100BC000501E00F019F8002010BD10B5032000F0F1
:100BD00047F80022BDE810401146501E00F00CB846
:100BE00000F01F01012202FA01F14009800000F12A
:100BF000E020C0F80011704710B4184B1B68C3F315
:100C00000223C3F1070CBCF1040F01D94FF0040C0F
:100C10001C1D072C01D2002300E0DB1E012404FA76
:100C20000CFCACF1010C0CEA0101994004FA03F34D
:100C30005B1E1A401143002808DA00F00F0000F193
:100C4000E020090180F8141D10BC704700F1E0207D
:100C5000090180F8001410BC704700000CED00E0A2
:100C600000F00700064A11684FF6FF03194041EAF9
:100C7000002040F0FD7040F0806010607047000080
:100C80000CED00E0F8B52548016841F080510160A5
:100C9000006800F0805000900126300490FAA0F027
:100CA000B0FA80F0800000F1844000F5602006601A
:100CB000FFF7FEFB05461A4C606810F4803F0BD12D
:100CC000FFF7F6FB401BB0F57A7F01D90320F8BD92
:100CD000606810F4803FF3D04FF4003090FAA0F039
:100CE000B0FA80F0800000F1844000F560200660DA
:100CF000FFF7DEFB0546606810F4003F0BD1FFF7FD
:100D0000D7FB401BB0F57A7F01D90320F8BD60689E
:100D100010F4003FF3D00020F8BD0000403802403E
:100D2000007000402DE9F04704460E46DFF868A247
:100D3000DAF80000994900F00F00994F06F0FF091A
:100D400041F28838B04270D28AF80090DAF8000098
:100D500000F00F00B04202D00120BDE8F0872078FB
:100D600010F0020F05D03868A26820F0F0001043A0
:100D70003860207810F0010F49D06068012808D051
:100D800002280DD003280BD0096811F0020F29D0DA
:100D90000AE0096811F4003F06D10120BDE8F087A0
:100DA000096811F0007F1AD0396821F00301084367
:100DB0003860FFF77DFB05466068012815D00228E2
:100DC00026D003283BD0386810F00C0F1FD0FFF757
:100DD0006FFB401B404539D90320BDE8F087012057
:100DE000BDE8F0870120BDE8F087386800F00C000E
:100DF00004280CD0FFF75CFB401B404502D90320C0
:100E0000BDE8F087386800F00C000428F2D1A8E0B3
:100E1000386800F00C00082870D0FFF749FB401B31
:100E2000404503D90320BDE8F08714E0386800F09E
:100E30000C000828F1D194E00320BDE8F087386861
:100E4000FFF736FB401B4045F9D9F5E7386810F04D
:100E50000C0FBCD185E0207810F0020F05D0386867
:100E6000A26820F0F00010433860207810F0010FE5
:100E70006CD06068012808D002280DD003280BD060
:100E8000096811F0020F29D00AE0096811F4003F47
:100E900006D10120BDE8F087096811F0007F1AD063
:100EA000396821F0030108433860FFF701FB05466C
:100EB0006068012815D0022827D003283BD0386865
:100EC00010F00C0F42D0FFF7F3FA401B404539D920
:100ED0000320BDE8F0870120BDE8F0870120BDE8D0
:100EE000F087386800F00C0004282FD0FFF7E0FAF4
:100EF000401B404503D90320BDE8F08731E0386846
:100F000000F00C000428F1D120E0386800F00C005B
:100F100008281BD0FFF7CCFA401B404502D903201C
:100F2000BDE8F087386800F00C000828F2D10DE029
:100F30000320BDE8F0873868FFF7BAFA401B404548
:100F4000F9D9F5E7386810F00C0FBCD18AF8009099
:100F5000DAF8000000F00F00B04202D00120BDE836
:100F6000F087207810F0040F05D03868E16820F48D
:100F7000E05008433860207810F0080F06D0386839
:100F8000216920F4604040EAC10038600020FFF78A
:100F90000BFE0020BDE8F087003C02400038024014
:100FA0000838024010B500F043F808490968F022FB
:100FB00092FAA2F201F0F001B2FA82F2D140044AB0
:100FC000515CC8400349086010BD00000838024069
:100FD000DC2400080800002010B5FFF7E3FF0749F4
:100FE00009684FF4E05292FAA2F201F4E051B2FA29
:100FF00082F2D140024A515CC84010BD083802401C
:10100000DC24000810B5FFF7CDFF074909684FF44D
:10101000604292FAA2F201F46041B2FA82F2D14047
:10102000024A515CC84010BD08380240DC24000868
:1010300010B41F48006810F00C011E481BD04FEA86
:10104000600C042916D0082915D11B4A116801F03B
:101050003F01136813F4800F47F6C0730DD0BCFB3B
:10106000F1F01168194093FAA3F3B3FA83F3D9406E
:1010700048430CE0604610BC7047B0FBF1F01168CB
:10108000194093FAA3F3B3FA83F3D94048431168A4
:101090004FF4403292FAA2F201F44031B2FA82F2F5
:1010A000D140491C4900B0FBF1F010BC7047000072
:1010B000083802400024F400043802402DE9F84FBB
:1010C0000446DFF8E8B32078F94D10F0010F4FF037
:1010D000000741F2883660D0DBF8000000F00C0019
:1010E00004280AD0DBF8000000F00C0008280DD11D
:1010F000281D006810F4800F08D0286810F4003F05
:101100004BD0606878BB0120BDE8F88FDFF8A4936E
:1011100089F80070FFF7CCF98046286810F4003F8A
:101120000CD0FFF7C5F9A0EB0800B04202D90320AC
:10113000BDE8F88F286810F4003FF2D1207989F8D3
:1011400000006068A8B1FFF7B3F98046286810F482
:10115000003F22D1FFF7ACF9A0EB0800B04203D961
:101160000320BDE8F88F18E0286810F4003FF1D0A4
:1011700013E0FFF79DF98046286810F4003F0CD07B
:10118000FFF796F9A0EB0800B04202D90320BDE8B2
:10119000F88F286810F4003FF2D12078DFF8188328
:1011A00010F0020F64D0DBF800004FF0F80A10F0E6
:1011B0000C0F17D0DBF8000000F00C00082804D159
:1011C000BE48006810F4800F0CD0E068C8B301205E
:1011D000C8F80000FFF76CF98146286810F0020F8C
:1011E00016D022E0286810F0020F05D0E068012830
:1011F00002D00120BDE8F88F28689AFAAAF2216986
:10120000B2FA82F220F0F8009140084328602FE003
:10121000FFF74EF9A0EB0900642802D90320BDE8CE
:10122000F88F286810F0020FF2D028689AFAAAF214
:101230002169B2FA82F220F0F80091400843286058
:1012400016E0FFE7C8F80070FFF732F9814628681A
:1012500010F0020F0CD0FFF72BF9A0EB0900642867
:1012600002D90320BDE8F88F286810F0020FF2D1F0
:10127000207810F0080F34D09148DFF848A2616957
:10128000C1B101210160FFF713F98146DAF80000CE
:1012900010F0020F25D1FFF70BF9A0EB090064282D
:1012A00002D90320BDE8F88FDAF8000010F0020F31
:1012B000F1D016E00760FFF7FBF88146DAF800008E
:1012C00010F0020F0DD0FFF7F3F8A0EB090064282F
:1012D00002D90320BDE8F88FDAF8000010F0020F01
:1012E000F1D1207810F0040F72D07748016841F0F6
:1012F00080510160006800F080500090DFF8CCA1C0
:10130000DAF8000040F48070CAF80000FFF7D0F867
:101310008146DAF8000010F4807F0DD1FFF7C8F89D
:10132000A0EB0900642802D90320BDE8F88FDAF8A1
:10133000000010F4807FF1D0DFF894A18AF80070EB
:10134000FFF7B6F88146DAF8000010F0020F0DD072
:10135000FFF7AEF8A0EB0900B04202D90320BDE8C8
:10136000F88FDAF8000010F0020FF1D1207A8AF835
:101370000000A068B0B1FFF79BF88146DAF80000E2
:1013800010F0020F24D1FFF793F8A0EB0900B04250
:1013900002D90320BDE8F88FDAF8000010F0020F40
:1013A000F1D015E0FFF784F88146DAF8000010F07C
:1013B000020F0DD0FFF77CF8A0EB0900B04202D974
:1013C0000320BDE8F88FDAF8000010F0020FF1D129
:1013D000A069E8B3DBF8001001F00C01082979D00E
:1013E000022810D0C8F86070FFF762F80446286839
:1013F00010F0007F74D0FFF75BF8001B64286BD9F6
:101400000320BDE8F88FC8F86070FFF751F8064672
:10141000286810F0007F0BD0FFF74AF8801B642883
:1014200002D90320BDE8F88F286810F0007FF3D1BF
:10143000216AE069626A014347F6C07090FAA0F041
:10144000B0FA80F002FA00F04FF0FF33A26A00E039
:1014500046E003EB52024FF4403393FAA3F3B3FA9E
:1014600083F39A40104308434FF0706292FAA2F25D
:10147000E16AB2FA82F29140014310480160012012
:10148000C8F86000FFF714F80446286810F0007FE1
:1014900026D1FFF70DF8001B642802D90320BDE810
:1014A000F88F286810F0007FF3D019E00838024068
:1014B000003802400238024000004742043802402F
:1014C000800E4742743802404038024000700040AD
:1014D0007038024007E0FFE7286810F0007F8AD1EB
:1014E0000020BDE8F88F0120BDE8F88F4FF0E02123
:1014F000042804D0086920F00400086170470869D6
:1015000040F004000861704770470000401EB0F1D1
:10151000807F01D3012070474FF0E0214861044AE9
:10152000F0201070002088610720086100207047BB
:1015300023ED00E010B5FFF7E7FF10BD70B50446DE
:10154000002C04D094F83900002510B106E00120E9
:1015500070BD84F83850204600F020F8022084F84E
:1015600039002068C16821F40051C160204600F0B4
:1015700049FD2068016921F49041016120684169B9
:1015800021F02A0141612068C16841F40051C16025
:10159000E563012084F83900002070BDF0B587B004
:1015A0000068A0F18041B1F5904122D11248016854
:1015B00041F480210160006800F4802001904FF424
:1015C0008060029002250395012404940594072667
:1015D00006960A4F02A93846FEF75AFEE00202902C
:1015E0000395049403200590069602A93846FEF759
:1015F0004FFE07B0F0BD000040380240000402403A
:101600002DE9F04104460D46984694F8390001282A
:1016100004D0222802D00220BDE8F0811DB312B30D
:1016200094F83800012821D0012684F8386000277A
:10163000E76394F8390022281BD0122084F839007F
:10164000A284E284E08C401EE084A068B0F5805F54
:1016500013D0434600228021204600F0DFFD08B36E
:101660000320BDE8F0810120BDE8F0810220BDE843
:10167000F081322084F83900E2E7434600228021DD
:10168000204600F0CBFD10B10320BDE8F081288892
:101690002168C0F308004860206908B16D1C05E0AE
:1016A000AD1C03E0216815F8010B4860E08C0028B0
:1016B000C8D1434600224021204600F0AFFD10B1C2
:1016C0000320BDE8F08194F83900322806D084F870
:1016D000396084F838700020BDE8F081222084F859
:1016E0003900F6E70148FEF7E9BE00000C000020D3
:1016F0000148FEF748BF00000C00002010B5428DE5
:101700000168032A0CD0428D022A17D00A69416A67
:101710004B1C43620A70418D491E4185002010BD5B
:101720000A6822F480620A6001680A69416A4B1CF7
:1017300043620A70418D491E4185EFE70A6842F411
:1017400000720A6001680A69416A4B1C43620A70B0
:10175000418D491E418501680A69416A4B1C4362FB
:101760000A70418D491E418501684A6822F4407221
:101770004A6090F835200121422A04D080F83510C3
:10178000FFF722F8CAE780F83510FFF7A5F9C5E79B
:1017900010B5428D0168032A08D90A69416A4B1CB9
:1017A00043620A70418D491E418519E0022A19D011
:1017B000032A17D04A6822F4E0624A6001680A6985
:1017C000416A4B1C43620A70418D491E418590F865
:1017D00035200121422A0AD080F83510FEF7F4FFA7
:1017E000002010BD486820F480604860F8E780F869
:1017F0003510FFF771F9F3E72DE9F84304460D467C
:1018000017462068016841F4806101602068016822
:1018100041F4807101603B4600224FF001112046E7
:1018200000F055F910B10320BDE8F8832069DFF816
:10183000BC80B0F5804F13D0216805F44076F020CD
:1018400040EAD61008613A4608F10601204600F049
:10185000BAF970B1A06B042808D00320BDE8F88362
:101860002168E8B240F0010008612CE00120BDE8E9
:10187000F8832168E8B208613A464146204600F004
:10188000A2F940B1A06B042802D00320BDE8F88380
:101890000120BDE8F88320684169816900910168F1
:1018A00041F4807101603B4600224FF00111204657
:1018B00000F00DF910B10320BDE8F8832168F12094
:1018C00040EAD61008613A464146204600F07BF9CE
:1018D00040B1A06B042802D00320BDE8F8830120AA
:1018E000BDE8F8830020BDE8F88300000200010095
:1018F00070B504460D4616462068016841F48071B3
:101900000160334600224FF00111204600F0DFF85D
:1019100008B1032070BD2069B0F5804F11D005F4E7
:101920004070F02141EAD010216808613246114927
:10193000204600F048F958B1A06B042806D00320D7
:1019400070BD216805F0FE00086104E0012070BD53
:101950002168E8B2086132460749204600F033F9B1
:1019600030B1A06B042801D0032070BD012070BDF0
:10197000002070BD080001000200010010B5428D7A
:101980000168002A08D0426A531C436212780A6137
:10199000418D491E418511E04A6822F4E0624A60A7
:1019A00001680A6842F400720A6090F8352001214B
:1019B000322A05D080F83510FEF707FF002010BD51
:1019C00080F83510FFF789F8F8E7416A4A1C42624F
:1019D000026809781161418D491E4185418D0029B8
:1019E00004D10068416821F48061416000207047A3
:1019F000418D002908D001680A69416A4B1C436285
:101A00000A70418D491E418500207047418D002993
:101A100008D001680A69416A4B1C43620A70418D13
:101A2000491E418500207047418D002908D0416A38
:101A30004A1C4262026809781161418D491E418544
:101A400000207047418D002908D0416A4A1C42623B
:101A5000026809781161418D491E41850020704757
:101A600081B00068416980690090002001B0704732
:101A700010B501684A6822F4E0624A6002686FF4B7
:101A80008061516101680A6822F480620A60012164
:101A900080F83510FFF765F8002010BD08B5016823
:101AA0004A6822F4E0624A6001684A6900920A6862
:101AB00042F001020A6001680A6822F480620A604A
:101AC000012180F83510FFF74BF8002008BD2DE903
:101AD000F05F04460D4693461E46FEF7E9FC80463D
:101AE0004FF000094FF0010AC5F30747BBF1000FA3
:101AF00009D0012F3BD02068806925EA000000044E
:101B0000000C3BD054E0012F17D02068806925EAF3
:101B100000000004000C4BD0B6F1FF3F15D02EB1F1
:101B2000FEF7C6FCA0EB0800B0420ED984F835A041
:101B300084F834900320BDE8F09F2068406925EACE
:101B400000000004000C33D0E6E7012F07D0206826
:101B5000806925EA00000004000CDDD128E020683F
:101B6000406925EA00000004000CD5D120E020687F
:101B7000406925EA00000004000C19D1B6F1FF3FCE
:101B80000DD02EB1FEF794FCA0EB0800B04206D9B0
:101B900084F835A084F834900320BDE8F09F012F2D
:101BA00009D02068806925EA00000004000CE5D017
:101BB0000020BDE8F09F2068406925EA000000048D
:101BC000000CDBD0F4E72DE9F04704460D4616463D
:101BD000FEF76EFC0746C5F30748B8F1010F21D0A8
:101BE0002068806925EA00000004000C3CD04FF01A
:101BF00000094FF0010A2068406910F4806F19D085
:101C00002068016841F40071016021686FF4806010
:101C100048610420A06384F835A084F83490012042
:101C2000BDE8F0872068406925EA00000004000C48
:101C30001AD0DCE7B6F1FF3F0CD026B1FEF738FC36
:101C4000C01BB04206D984F835A084F83490032034
:101C5000BDE8F087B8F1010F09D02068806925EA56
:101C600000000004000CC6D10020BDE8F087206809
:101C7000406925EA00000004000CBCD1F4E7000034
:101C800000B587B01648016841F080010160016825
:101C900001F080010191016841F0040101600168D7
:101CA00001F004010191016841F002010160016845
:101CB00001F002010191016841F001010160006839
:101CC00000F00100019020200290012003900020EC
:101CD0000490059002A90348FEF7DAFA07B000BDA8
:101CE00030380240000802400A48094901600A49A8
:101CF000416000218160D022C2604FF480420261C5
:101D0000416181614022C2610162FEF7D9BC0000DD
:101D1000005C00400C000020A08601000848074934
:101D200001604FF4E131416000218160C1600161D7
:101D30000C2242618161C161FFF700BC0048004094
:101D40004800002070B586B0002000F08FF83C4EAF
:101D50003070122000F08AF83A4C2070132000F006
:101D600085F8607094F9001004F10C0541EA002038
:101D70002880142000F07AF8A070152000F076F882
:101D8000E07094F9021041EA00206880162000F00B
:101D90006DF82071172000F069F8607194F9041053
:101DA00041EA0020A8800C2000F060F8A0710D200E
:101DB00000F05CF8E07194F9061041EA0020E88038
:101DC0000E2000F053F820720F2000F04FF86072E0
:101DD00094F9081041EA00202881102000F046F80C
:101DE000A072112000F042F840B2E07294F90A109B
:101DF00041EA00206881B5F90810B5F90620B5F967
:101E000004300391019302920490B5F9020000900E
:101E1000B5F9003096F900200BA104F1180000F08C
:101E20006FFA04F11800FEF7DDF906B004F11801AD
:101E3000BDE8704082B241F288330B48FFF7E0BB47
:101E400004000020880000204D50555F49443A208E
:101E50002564202564202564202564202564202510
:101E6000642025640D0A00004800002011B583B0ED
:101E70004FF6FF74012303AAD02110480094FEF707
:101E8000A7FD58B10D48FEF719FC012303AAD02184
:101E90000A480094FEF79CFD0028F3D1012302AA12
:101EA000D12106480094FEF791FC10B10348FEF7DB
:101EB00005FC9DF8080004B010BD00000C000020D7
:101EC00010B582B08DF804008DF805104FF6FF7440
:101ED000022301AAD0210A480094FEF779FD0028C8
:101EE0000BD00748FEF7EAFB022301AAD0210448E1
:101EF0000094FEF76DFD0028F3D102B010BD000084
:101F00000C00002010B5FEF72DFEBDE81040FFF7D5
:101F100011BB000010B592B02248016841F0805119
:101F20000160006800F0805000901F48016841F493
:101F300040410160006800F440400090012006909C
:101F4000079002240C9480050D9008200E904FF409
:101F5000B4700F9010940420119006A8FFF7AEF80B
:101F6000FEF790FE0D2001900294002003904FF4A4
:101F7000A0500490E0020590052101A8FEF7D2FED2
:101F8000FFF710F84FF47A71B0FBF1F0FFF7BEFAEB
:101F90000420FFF7ABFA00221146501EFEF72CFE7C
:101FA00012B010BD40380240007000400F48016878
:101FB00041F4700101600E48016841F001010160C7
:101FC0000C4A00211160026822F4102222F0807273
:101FD0000260031D084A1A60026822F4802202602F
:101FE00006480160064958060860704788ED00E021
:101FF0000038024008380240103000240C380240FB
:1020000008ED00E02DE9F04104462068016921F463
:102010004051E268114301612068C16821F40371F5
:1020200021F414412369A268D4F81CC01A436369DF
:1020300043EA0C031A431143C1602068416921F44B
:102040004071A26911434161E069714A7149724D61
:102050003226B0F5004F38D02068884201D0904237
:102060007ED1FEF7CFFF00EBC00101EB00106168ED
:102070008900B0FBF1F0A5FB00104709FEF7C2FF95
:1020800000EBC00101EB001061688900B0FBF1F8C2
:10209000FEF7B8FF00EBC00101EB0010616889009A
:1020A000B0FBF1F0A5FB001040096FF018014843A8
:1020B00008EB800006EB0010A5FB0010216840092A
:1020C00067F31F108860BDE8F0812068884201D066
:1020D000904233D1FEF796FF00EBC00101EB0010F8
:1020E00061684900B0FBF1F0A5FB00104709FEF75D
:1020F00089FF00EBC00101EB001061684900B0FBF3
:10210000F1F8FEF77FFF00EBC00101EB0010616802
:102110004900B0FBF1F0A5FB001040096FF0180179
:10212000484308EB800006EB0010A5FB0010216877
:10213000400967F31F108860BDE8F081FEF74CFF8F
:1021400000EBC00101EB001061684900B0FBF1F049
:10215000A5FB00104709FEF73FFF00EBC00100E0C0
:1021600022E001EB001061684900B0FBF1F8FEF7D6
:1021700033FF00EBC00101EB001061684900B0FBC8
:10218000F1F0A5FB001040096FF01801484308EB7F
:10219000800006EB0010A5FB00102168400967F3E2
:1021A0001F108860BDE8F081FEF716FF00EBC0014C
:1021B00001EB001061688900B0FBF1F0A5FB001095
:1021C0004709FEF709FF00EBC00101EB0010616851
:1021D0008900B0FBF1F8FEF7FFFE00EBC00101EB58
:1021E000001061688900B0FBF1F0A5FB0010400908
:1021F0006FF01801484308EB800006EB0010A5FBC8
:1022000000102168400967F31F108860BDE8F08165
:1022100000140140001001401F85EB512DE9F047EB
:1022200004460E4692461D46FEF742F907464FF019
:1022300000084FF00109BAF1000F05D020680068CE
:1022400036EA00002FD057E02068006836EA000028
:1022500052D0B5F1FF3F20D025B1FEF729F9C01BC0
:10226000A8421AD92068C16821F08001C1602068A5
:10227000C16821F02001C1602068C16821F480712B
:10228000C1602068416921F00101416184F8399001
:1022900084F838800320BDE8F0872068006836EABB
:1022A0000000D6D128E0B5F1FF3F20D025B1FEF7E0
:1022B000FFF8C01BA8421AD92068C16821F080012C
:1022C000C1602068C16821F02001C1602068C16838
:1022D00021F48071C1602068416921F001014161F0
:1022E00084F8399084F838800320BDE8F0872068AE
:1022F000006836EA0000D6D00020BDE8F087000074
:102300000FB4084B10B504A902AA039800F01CF8FA
:10231000044602A9002000F0C1F8204610BC5DF878
:1023200014FB00009D24000802E008C8121F08C129
:10233000002AFAD170477047002001E001C1121F46
:10234000002AFBD1704700002DE9FF4F89B09B4662
:102350000446002506E025280BD05A460B999047E5
:10236000641C6D1C20780028F5D10DB02846BDE80E
:10237000F08F0027B8460122474900E0074314F8D0
:10238000013F203B02FA03F00842F7D120782E28C3
:1023900019D114F8010F47F004072A280ED06FF066
:1023A0002F022078A0F1300109290CD808EB880110
:1023B00002EB410100EB0108641CF2E70A98641C7F
:1023C00050F8048B0A9020780028CED0642808D0DA
:1023D000692806D075281ED05A460B9990476D1C67
:1023E00058E00A994FF00A0901C90A91002802DA57
:1023F00040422D2102E0390504D52B218DF8201013
:10240000012103E0F90704D02021F7E78A4608AE4E
:102410000DE00021FAE70A994FF00A0901C90A9173
:10242000F7E74946FDF7E5FE303106F8011D0028C3
:10243000F7D1ADEB060000F12009780701D44FF089
:102440000108C84502DDA8EB090000E00020804635
:10245000002706E008A85A46C05D0B9990476D1CFE
:102460007F1C5745F6DB04E030205A460B99904715
:102470006D1CB8F10001A8F10108F5DC05E016F8C3
:10248000010B5A460B9990476D1CB9F10001A9F157
:102490000109F4DC641C65E7092801000A68531C83
:1024A0000B60107070470000FEF764FBFFF732FD11
:1024B000FFF7E6FBFFF718FCFFF730FCFDF7C2FE65
:1024C000054CFFF73FFC4FF4FA70FDF7D6FE2021D4
:1024D0002046FDF7E9FFF4E7000802400000000095
:1024E0000102030401020304060708090C25000881
:1024F000000000200C000000282300081825000818
:102500000C000020940500003823000800000000A3
:08251000000000000024F400AB
:04000005080001AD41
:00000001FF
